{"abi":[{"type":"constructor","inputs":[{"name":"admin","type":"address","internalType":"address"}],"stateMutability":"nonpayable"},{"type":"function","name":"DEFAULT_ADMIN_ROLE","inputs":[],"outputs":[{"name":"","type":"bytes32","internalType":"bytes32"}],"stateMutability":"view"},{"type":"function","name":"OPERATOR_ROLE","inputs":[],"outputs":[{"name":"","type":"bytes32","internalType":"bytes32"}],"stateMutability":"view"},{"type":"function","name":"agentIds","inputs":[{"name":"","type":"uint256","internalType":"uint256"}],"outputs":[{"name":"","type":"bytes32","internalType":"bytes32"}],"stateMutability":"view"},{"type":"function","name":"agents","inputs":[{"name":"","type":"bytes32","internalType":"bytes32"}],"outputs":[{"name":"wallet","type":"address","internalType":"address"},{"name":"owner","type":"address","internalType":"address"},{"name":"status","type":"uint8","internalType":"enum AgentRegistry.AgentStatus"},{"name":"riskScore","type":"uint256","internalType":"uint256"},{"name":"registeredAt","type":"uint256","internalType":"uint256"}],"stateMutability":"view"},{"type":"function","name":"getAgent","inputs":[{"name":"agentId","type":"bytes32","internalType":"bytes32"}],"outputs":[{"name":"","type":"tuple","internalType":"struct AgentRegistry.Agent","components":[{"name":"wallet","type":"address","internalType":"address"},{"name":"owner","type":"address","internalType":"address"},{"name":"status","type":"uint8","internalType":"enum AgentRegistry.AgentStatus"},{"name":"riskScore","type":"uint256","internalType":"uint256"},{"name":"registeredAt","type":"uint256","internalType":"uint256"}]}],"stateMutability":"view"},{"type":"function","name":"getAllAgentIds","inputs":[],"outputs":[{"name":"","type":"bytes32[]","internalType":"bytes32[]"}],"stateMutability":"view"},{"type":"function","name":"getRoleAdmin","inputs":[{"name":"role","type":"bytes32","internalType":"bytes32"}],"outputs":[{"name":"","type":"bytes32","internalType":"bytes32"}],"stateMutability":"view"},{"type":"function","name":"grantRole","inputs":[{"name":"role","type":"bytes32","internalType":"bytes32"},{"name":"account","type":"address","internalType":"address"}],"outputs":[],"stateMutability":"nonpayable"},{"type":"function","name":"hasRole","inputs":[{"name":"role","type":"bytes32","internalType":"bytes32"},{"name":"account","type":"address","internalType":"address"}],"outputs":[{"name":"","type":"bool","internalType":"bool"}],"stateMutability":"view"},{"type":"function","name":"incrementRiskScore","inputs":[{"name":"agentId","type":"bytes32","internalType":"bytes32"},{"name":"amount","type":"uint256","internalType":"uint256"}],"outputs":[],"stateMutability":"nonpayable"},{"type":"function","name":"isAgentActive","inputs":[{"name":"agentId","type":"bytes32","internalType":"bytes32"}],"outputs":[{"name":"","type":"bool","internalType":"bool"}],"stateMutability":"view"},{"type":"function","name":"registerAgent","inputs":[{"name":"agentId","type":"bytes32","internalType":"bytes32"},{"name":"wallet","type":"address","internalType":"address"},{"name":"owner","type":"address","internalType":"address"}],"outputs":[],"stateMutability":"nonpayable"},{"type":"function","name":"renounceRole","inputs":[{"name":"role","type":"bytes32","internalType":"bytes32"},{"name":"callerConfirmation","type":"address","internalType":"address"}],"outputs":[],"stateMutability":"nonpayable"},{"type":"function","name":"revokeRole","inputs":[{"name":"role","type":"bytes32","internalType":"bytes32"},{"name":"account","type":"address","internalType":"address"}],"outputs":[],"stateMutability":"nonpayable"},{"type":"function","name":"supportsInterface","inputs":[{"name":"interfaceId","type":"bytes4","internalType":"bytes4"}],"outputs":[{"name":"","type":"bool","internalType":"bool"}],"stateMutability":"view"},{"type":"function","name":"updateAgentStatus","inputs":[{"name":"agentId","type":"bytes32","internalType":"bytes32"},{"name":"newStatus","type":"uint8","internalType":"enum AgentRegistry.AgentStatus"}],"outputs":[],"stateMutability":"nonpayable"},{"type":"event","name":"AgentRegistered","inputs":[{"name":"agentId","type":"bytes32","indexed":true,"internalType":"bytes32"},{"name":"wallet","type":"address","indexed":true,"internalType":"address"},{"name":"owner","type":"address","indexed":true,"internalType":"address"}],"anonymous":false},{"type":"event","name":"AgentStatusUpdated","inputs":[{"name":"agentId","type":"bytes32","indexed":true,"internalType":"bytes32"},{"name":"newStatus","type":"uint8","indexed":false,"internalType":"enum AgentRegistry.AgentStatus"}],"anonymous":false},{"type":"event","name":"RiskScoreIncremented","inputs":[{"name":"agentId","type":"bytes32","indexed":true,"internalType":"bytes32"},{"name":"newScore","type":"uint256","indexed":false,"internalType":"uint256"}],"anonymous":false},{"type":"event","name":"RoleAdminChanged","inputs":[{"name":"role","type":"bytes32","indexed":true,"internalType":"bytes32"},{"name":"previousAdminRole","type":"bytes32","indexed":true,"internalType":"bytes32"},{"name":"newAdminRole","type":"bytes32","indexed":true,"internalType":"bytes32"}],"anonymous":false},{"type":"event","name":"RoleGranted","inputs":[{"name":"role","type":"bytes32","indexed":true,"internalType":"bytes32"},{"name":"account","type":"address","indexed":true,"internalType":"address"},{"name":"sender","type":"address","indexed":true,"internalType":"address"}],"anonymous":false},{"type":"event","name":"RoleRevoked","inputs":[{"name":"role","type":"bytes32","indexed":true,"internalType":"bytes32"},{"name":"account","type":"address","indexed":true,"internalType":"address"},{"name":"sender","type":"address","indexed":true,"internalType":"address"}],"anonymous":false},{"type":"error","name":"AccessControlBadConfirmation","inputs":[]},{"type":"error","name":"AccessControlUnauthorizedAccount","inputs":[{"name":"account","type":"address","internalType":"address"},{"name":"neededRole","type":"bytes32","internalType":"bytes32"}]},{"type":"error","name":"AgentAlreadyExists","inputs":[{"name":"agentId","type":"bytes32","internalType":"bytes32"}]},{"type":"error","name":"AgentNotActive","inputs":[{"name":"agentId","type":"bytes32","internalType":"bytes32"}]},{"type":"error","name":"AgentNotFound","inputs":[{"name":"agentId","type":"bytes32","internalType":"bytes32"}]}],"bytecode":{"object":"0x608060405234801561000f575f5ffd5b5060405161195c38038061195c83398181016040528101906100319190610238565b6100435f5f1b8261007b60201b60201c565b506100747f97667070c54ef182b0f5858b034beac1b6f3089aa2d3188bb1e8929f4fa9b9298261007b60201b60201c565b5050610263565b5f61008c838361017060201b60201c565b6101665760015f5f8581526020019081526020015f205f015f8473ffffffffffffffffffffffffffffffffffffffff1673ffffffffffffffffffffffffffffffffffffffff1681526020019081526020015f205f6101000a81548160ff0219169083151502179055506101036101d360201b60201c565b73ffffffffffffffffffffffffffffffffffffffff168273ffffffffffffffffffffffffffffffffffffffff16847f2f8788117e7eff1d82e926ec794901d17c78024a50270940304540a733656f0d60405160405180910390a46001905061016a565b5f90505b92915050565b5f5f5f8481526020019081526020015f205f015f8373ffffffffffffffffffffffffffffffffffffffff1673ffffffffffffffffffffffffffffffffffffffff1681526020019081526020015f205f9054906101000a900460ff16905092915050565b5f33905090565b5f5ffd5b5f73ffffffffffffffffffffffffffffffffffffffff82169050919050565b5f610207826101de565b9050919050565b610217816101fd565b8114610221575f5ffd5b50565b5f815190506102328161020e565b92915050565b5f6020828403121561024d5761024c6101da565b5b5f61025a84828501610224565b91505092915050565b6116ec806102705f395ff3fe608060405234801561000f575f5ffd5b50600436106100fe575f3560e01c80638a92792b11610095578063cfda496611610064578063cfda4966146102e6578063d4e34ec314610302578063d547741f1461031e578063f5b541a61461033a576100fe565b80638a92792b1461023857806391d1485414610268578063a217fddf14610298578063a6c2af01146102b6576100fe565b80632f2ff15d116100d15780632f2ff15d146101b457806330f324c8146101d057806336568abe146101ec57806356e7605814610208576100fe565b806301ffc9a7146101025780631136a59514610132578063248a9ca3146101505780632e20ee1814610180575b5f5ffd5b61011c600480360381019061011791906110cf565b610358565b6040516101299190611114565b60405180910390f35b61013a6103d1565b60405161014791906111ed565b60405180910390f35b61016a60048036038101906101659190611237565b610427565b6040516101779190611271565b60405180910390f35b61019a60048036038101906101959190611237565b610443565b6040516101ab959493929190611354565b60405180910390f35b6101ce60048036038101906101c991906113cf565b6104c0565b005b6101ea60048036038101906101e59190611430565b6104e2565b005b610206600480360381019061020191906113cf565b610627565b005b610222600480360381019061021d9190611498565b6106a2565b60405161022f9190611271565b60405180910390f35b610252600480360381019061024d9190611237565b6106c2565b60405161025f9190611114565b60405180910390f35b610282600480360381019061027d91906113cf565b610712565b60405161028f9190611114565b60405180910390f35b6102a0610775565b6040516102ad9190611271565b60405180910390f35b6102d060048036038101906102cb9190611237565b61077b565b6040516102dd9190611556565b60405180910390f35b61030060048036038101906102fb919061156f565b610940565b005b61031c600480360381019061031791906115ad565b610a87565b005b610338600480360381019061033391906113cf565b610d21565b005b610342610d43565b60405161034f9190611271565b60405180910390f35b5f7f7965db0b000000000000000000000000000000000000000000000000000000007bffffffffffffffffffffffffffffffffffffffffffffffffffffffff1916827bffffffffffffffffffffffffffffffffffffffffffffffffffffffff191614806103ca57506103c982610d67565b5b9050919050565b6060600280548060200260200160405190810160405280929190818152602001828054801561041d57602002820191905f5260205f20905b815481526020019060010190808311610409575b5050505050905090565b5f5f5f8381526020019081526020015f20600101549050919050565b6001602052805f5260405f205f91509050805f015f9054906101000a900473ffffffffffffffffffffffffffffffffffffffff1690806001015f9054906101000a900473ffffffffffffffffffffffffffffffffffffffff16908060010160149054906101000a900460ff16908060020154908060030154905085565b6104c982610427565b6104d281610dd0565b6104dc8383610de4565b50505050565b7f97667070c54ef182b0f5858b034beac1b6f3089aa2d3188bb1e8929f4fa9b92961050c81610dd0565b5f73ffffffffffffffffffffffffffffffffffffffff1660015f8581526020019081526020015f205f015f9054906101000a900473ffffffffffffffffffffffffffffffffffffffff1673ffffffffffffffffffffffffffffffffffffffff16036105ae57826040517f4bc81e6d0000000000000000000000000000000000000000000000000000000081526004016105a59190611271565b60405180910390fd5b8160015f8581526020019081526020015f2060010160146101000a81548160ff021916908360028111156105e5576105e46112c9565b5b0217905550827f8f95c0fce60bbce52c2737b54ae071e31a6a9c014da368d5a38632f2d502d5368360405161061a91906115fd565b60405180910390a2505050565b61062f610ecd565b73ffffffffffffffffffffffffffffffffffffffff168173ffffffffffffffffffffffffffffffffffffffff1614610693576040517f6697b23200000000000000000000000000000000000000000000000000000000815260040160405180910390fd5b61069d8282610ed4565b505050565b600281815481106106b1575f80fd5b905f5260205f20015f915090505481565b5f5f60028111156106d6576106d56112c9565b5b60015f8481526020019081526020015f2060010160149054906101000a900460ff16600281111561070a576107096112c9565b5b149050919050565b5f5f5f8481526020019081526020015f205f015f8373ffffffffffffffffffffffffffffffffffffffff1673ffffffffffffffffffffffffffffffffffffffff1681526020019081526020015f205f9054906101000a900460ff16905092915050565b5f5f1b81565b61078361100e565b5f73ffffffffffffffffffffffffffffffffffffffff1660015f8481526020019081526020015f205f015f9054906101000a900473ffffffffffffffffffffffffffffffffffffffff1673ffffffffffffffffffffffffffffffffffffffff160361082557816040517f4bc81e6d00000000000000000000000000000000000000000000000000000000815260040161081c9190611271565b60405180910390fd5b60015f8381526020019081526020015f206040518060a00160405290815f82015f9054906101000a900473ffffffffffffffffffffffffffffffffffffffff1673ffffffffffffffffffffffffffffffffffffffff1673ffffffffffffffffffffffffffffffffffffffff168152602001600182015f9054906101000a900473ffffffffffffffffffffffffffffffffffffffff1673ffffffffffffffffffffffffffffffffffffffff1673ffffffffffffffffffffffffffffffffffffffff1681526020016001820160149054906101000a900460ff16600281111561090f5761090e6112c9565b5b6002811115610921576109206112c9565b5b8152602001600282015481526020016003820154815250509050919050565b7f97667070c54ef182b0f5858b034beac1b6f3089aa2d3188bb1e8929f4fa9b92961096a81610dd0565b5f73ffffffffffffffffffffffffffffffffffffffff1660015f8581526020019081526020015f205f015f9054906101000a900473ffffffffffffffffffffffffffffffffffffffff1673ffffffffffffffffffffffffffffffffffffffff1603610a0c57826040517f4bc81e6d000000000000000000000000000000000000000000000000000000008152600401610a039190611271565b60405180910390fd5b8160015f8581526020019081526020015f206002015f828254610a2f9190611643565b92505081905550827f68b4bbe428b53467bca1790d34b452f50209ef07d3d0732b39763bd3054c1e3460015f8681526020019081526020015f2060020154604051610a7a9190611676565b60405180910390a2505050565b7f97667070c54ef182b0f5858b034beac1b6f3089aa2d3188bb1e8929f4fa9b929610ab181610dd0565b5f73ffffffffffffffffffffffffffffffffffffffff1660015f8681526020019081526020015f205f015f9054906101000a900473ffffffffffffffffffffffffffffffffffffffff1673ffffffffffffffffffffffffffffffffffffffff1614610b5357836040517fd76dbd31000000000000000000000000000000000000000000000000000000008152600401610b4a9190611271565b60405180910390fd5b6040518060a001604052808473ffffffffffffffffffffffffffffffffffffffff1681526020018373ffffffffffffffffffffffffffffffffffffffff1681526020015f6002811115610ba957610ba86112c9565b5b81526020015f81526020014281525060015f8681526020019081526020015f205f820151815f015f6101000a81548173ffffffffffffffffffffffffffffffffffffffff021916908373ffffffffffffffffffffffffffffffffffffffff1602179055506020820151816001015f6101000a81548173ffffffffffffffffffffffffffffffffffffffff021916908373ffffffffffffffffffffffffffffffffffffffff16021790555060408201518160010160146101000a81548160ff02191690836002811115610c7e57610c7d6112c9565b5b02179055506060820151816002015560808201518160030155905050600284908060018154018082558091505060019003905f5260205f20015f90919091909150558173ffffffffffffffffffffffffffffffffffffffff168373ffffffffffffffffffffffffffffffffffffffff16857fd53d542f4d54270d988d9bf6fd814a4d02e0d9c68783390a1a72209f6d5aa6c360405160405180910390a450505050565b610d2a82610427565b610d3381610dd0565b610d3d8383610ed4565b50505050565b7f97667070c54ef182b0f5858b034beac1b6f3089aa2d3188bb1e8929f4fa9b92981565b5f7f01ffc9a7000000000000000000000000000000000000000000000000000000007bffffffffffffffffffffffffffffffffffffffffffffffffffffffff1916827bffffffffffffffffffffffffffffffffffffffffffffffffffffffff1916149050919050565b610de181610ddc610ecd565b610fbd565b50565b5f610def8383610712565b610ec35760015f5f8581526020019081526020015f205f015f8473ffffffffffffffffffffffffffffffffffffffff1673ffffffffffffffffffffffffffffffffffffffff1681526020019081526020015f205f6101000a81548160ff021916908315150217905550610e60610ecd565b73ffffffffffffffffffffffffffffffffffffffff168273ffffffffffffffffffffffffffffffffffffffff16847f2f8788117e7eff1d82e926ec794901d17c78024a50270940304540a733656f0d60405160405180910390a460019050610ec7565b5f90505b92915050565b5f33905090565b5f610edf8383610712565b15610fb3575f5f5f8581526020019081526020015f205f015f8473ffffffffffffffffffffffffffffffffffffffff1673ffffffffffffffffffffffffffffffffffffffff1681526020019081526020015f205f6101000a81548160ff021916908315150217905550610f50610ecd565b73ffffffffffffffffffffffffffffffffffffffff168273ffffffffffffffffffffffffffffffffffffffff16847ff6391f5c32d9c69d2a47ea670b442974b53935d1edc7fd64eb21e047a839171b60405160405180910390a460019050610fb7565b5f90505b92915050565b610fc78282610712565b61100a5780826040517fe2517d3f00000000000000000000000000000000000000000000000000000000815260040161100192919061168f565b60405180910390fd5b5050565b6040518060a001604052805f73ffffffffffffffffffffffffffffffffffffffff1681526020015f73ffffffffffffffffffffffffffffffffffffffff1681526020015f6002811115611064576110636112c9565b5b81526020015f81526020015f81525090565b5f5ffd5b5f7fffffffff0000000000000000000000000000000000000000000000000000000082169050919050565b6110ae8161107a565b81146110b8575f5ffd5b50565b5f813590506110c9816110a5565b92915050565b5f602082840312156110e4576110e3611076565b5b5f6110f1848285016110bb565b91505092915050565b5f8115159050919050565b61110e816110fa565b82525050565b5f6020820190506111275f830184611105565b92915050565b5f81519050919050565b5f82825260208201905092915050565b5f819050602082019050919050565b5f819050919050565b61116881611156565b82525050565b5f611179838361115f565b60208301905092915050565b5f602082019050919050565b5f61119b8261112d565b6111a58185611137565b93506111b083611147565b805f5b838110156111e05781516111c7888261116e565b97506111d283611185565b9250506001810190506111b3565b5085935050505092915050565b5f6020820190508181035f8301526112058184611191565b905092915050565b61121681611156565b8114611220575f5ffd5b50565b5f813590506112318161120d565b92915050565b5f6020828403121561124c5761124b611076565b5b5f61125984828501611223565b91505092915050565b61126b81611156565b82525050565b5f6020820190506112845f830184611262565b92915050565b5f73ffffffffffffffffffffffffffffffffffffffff82169050919050565b5f6112b38261128a565b9050919050565b6112c3816112a9565b82525050565b7f4e487b71000000000000000000000000000000000000000000000000000000005f52602160045260245ffd5b60038110611307576113066112c9565b5b50565b5f819050611317826112f6565b919050565b5f6113268261130a565b9050919050565b6113368161131c565b82525050565b5f819050919050565b61134e8161133c565b82525050565b5f60a0820190506113675f8301886112ba565b61137460208301876112ba565b611381604083018661132d565b61138e6060830185611345565b61139b6080830184611345565b9695505050505050565b6113ae816112a9565b81146113b8575f5ffd5b50565b5f813590506113c9816113a5565b92915050565b5f5f604083850312156113e5576113e4611076565b5b5f6113f285828601611223565b9250506020611403858286016113bb565b9150509250929050565b60038110611419575f5ffd5b50565b5f8135905061142a8161140d565b92915050565b5f5f6040838503121561144657611445611076565b5b5f61145385828601611223565b92505060206114648582860161141c565b9150509250929050565b6114778161133c565b8114611481575f5ffd5b50565b5f813590506114928161146e565b92915050565b5f602082840312156114ad576114ac611076565b5b5f6114ba84828501611484565b91505092915050565b6114cc816112a9565b82525050565b6114db8161131c565b82525050565b6114ea8161133c565b82525050565b60a082015f8201516115045f8501826114c3565b50602082015161151760208501826114c3565b50604082015161152a60408501826114d2565b50606082015161153d60608501826114e1565b50608082015161155060808501826114e1565b50505050565b5f60a0820190506115695f8301846114f0565b92915050565b5f5f6040838503121561158557611584611076565b5b5f61159285828601611223565b92505060206115a385828601611484565b9150509250929050565b5f5f5f606084860312156115c4576115c3611076565b5b5f6115d186828701611223565b93505060206115e2868287016113bb565b92505060406115f3868287016113bb565b9150509250925092565b5f6020820190506116105f83018461132d565b92915050565b7f4e487b71000000000000000000000000000000000000000000000000000000005f52601160045260245ffd5b5f61164d8261133c565b91506116588361133c565b92508282019050808211156116705761166f611616565b5b92915050565b5f6020820190506116895f830184611345565b92915050565b5f6040820190506116a25f8301856112ba565b6116af6020830184611262565b939250505056fea2646970667358221220efdfe5bd469548f0ccf430957b83e0d5a6d5e971da1f6e8fef8634b858a2ec6164736f6c63430008230033","linkReferences":{}},"methodIdentifiers":{"DEFAULT_ADMIN_ROLE()":"a217fddf","OPERATOR_ROLE()":"f5b541a6","agentIds(uint256)":"56e76058","agents(bytes32)":"2e20ee18","getAgent(bytes32)":"a6c2af01","getAllAgentIds()":"1136a595","getRoleAdmin(bytes32)":"248a9ca3","grantRole(bytes32,address)":"2f2ff15d","hasRole(bytes32,address)":"91d14854","incrementRiskScore(bytes32,uint256)":"cfda4966","isAgentActive(bytes32)":"8a92792b","registerAgent(bytes32,address,address)":"d4e34ec3","renounceRole(bytes32,address)":"36568abe","revokeRole(bytes32,address)":"d547741f","supportsInterface(bytes4)":"01ffc9a7","updateAgentStatus(bytes32,uint8)":"30f324c8"},"id":34}