{"abi":[{"type":"constructor","inputs":[{"name":"admin","type":"address","internalType":"address"},{"name":"_agentRegistry","type":"address","internalType":"address"},{"name":"_auditLogger","type":"address","internalType":"address"}],"stateMutability":"nonpayable"},{"type":"function","name":"DEFAULT_ADMIN_ROLE","inputs":[],"outputs":[{"name":"","type":"bytes32","internalType":"bytes32"}],"stateMutability":"view"},{"type":"function","name":"OPERATOR_ROLE","inputs":[],"outputs":[{"name":"","type":"bytes32","internalType":"bytes32"}],"stateMutability":"view"},{"type":"function","name":"agentRegistry","inputs":[],"outputs":[{"name":"","type":"address","internalType":"contract AgentRegistry"}],"stateMutability":"view"},{"type":"function","name":"auditLogger","inputs":[],"outputs":[{"name":"","type":"address","internalType":"contract AuditLogger"}],"stateMutability":"view"},{"type":"function","name":"getRoleAdmin","inputs":[{"name":"role","type":"bytes32","internalType":"bytes32"}],"outputs":[{"name":"","type":"bytes32","internalType":"bytes32"}],"stateMutability":"view"},{"type":"function","name":"grantRole","inputs":[{"name":"role","type":"bytes32","internalType":"bytes32"},{"name":"account","type":"address","internalType":"address"}],"outputs":[],"stateMutability":"nonpayable"},{"type":"function","name":"hasRole","inputs":[{"name":"role","type":"bytes32","internalType":"bytes32"},{"name":"account","type":"address","internalType":"address"}],"outputs":[{"name":"","type":"bool","internalType":"bool"}],"stateMutability":"view"},{"type":"function","name":"isGloballyPaused","inputs":[],"outputs":[{"name":"","type":"bool","internalType":"bool"}],"stateMutability":"view"},{"type":"function","name":"killAgent","inputs":[{"name":"agentId","type":"bytes32","internalType":"bytes32"}],"outputs":[],"stateMutability":"nonpayable"},{"type":"function","name":"pauseAgent","inputs":[{"name":"agentId","type":"bytes32","internalType":"bytes32"}],"outputs":[],"stateMutability":"nonpayable"},{"type":"function","name":"pauseAll","inputs":[],"outputs":[],"stateMutability":"nonpayable"},{"type":"function","name":"paused","inputs":[],"outputs":[{"name":"","type":"bool","internalType":"bool"}],"stateMutability":"view"},{"type":"function","name":"renounceRole","inputs":[{"name":"role","type":"bytes32","internalType":"bytes32"},{"name":"callerConfirmation","type":"address","internalType":"address"}],"outputs":[],"stateMutability":"nonpayable"},{"type":"function","name":"revokeRole","inputs":[{"name":"role","type":"bytes32","internalType":"bytes32"},{"name":"account","type":"address","internalType":"address"}],"outputs":[],"stateMutability":"nonpayable"},{"type":"function","name":"supportsInterface","inputs":[{"name":"interfaceId","type":"bytes4","internalType":"bytes4"}],"outputs":[{"name":"","type":"bool","internalType":"bool"}],"stateMutability":"view"},{"type":"function","name":"unpauseAgent","inputs":[{"name":"agentId","type":"bytes32","internalType":"bytes32"}],"outputs":[],"stateMutability":"nonpayable"},{"type":"function","name":"unpauseAll","inputs":[],"outputs":[],"stateMutability":"nonpayable"},{"type":"event","name":"AgentKilled","inputs":[{"name":"agentId","type":"bytes32","indexed":true,"internalType":"bytes32"},{"name":"triggeredBy","type":"address","indexed":true,"internalType":"address"}],"anonymous":false},{"type":"event","name":"AgentPaused","inputs":[{"name":"agentId","type":"bytes32","indexed":true,"internalType":"bytes32"},{"name":"triggeredBy","type":"address","indexed":true,"internalType":"address"}],"anonymous":false},{"type":"event","name":"AgentUnpaused","inputs":[{"name":"agentId","type":"bytes32","indexed":true,"internalType":"bytes32"},{"name":"triggeredBy","type":"address","indexed":true,"internalType":"address"}],"anonymous":false},{"type":"event","name":"Paused","inputs":[{"name":"account","type":"address","indexed":false,"internalType":"address"}],"anonymous":false},{"type":"event","name":"RoleAdminChanged","inputs":[{"name":"role","type":"bytes32","indexed":true,"internalType":"bytes32"},{"name":"previousAdminRole","type":"bytes32","indexed":true,"internalType":"bytes32"},{"name":"newAdminRole","type":"bytes32","indexed":true,"internalType":"bytes32"}],"anonymous":false},{"type":"event","name":"RoleGranted","inputs":[{"name":"role","type":"bytes32","indexed":true,"internalType":"bytes32"},{"name":"account","type":"address","indexed":true,"internalType":"address"},{"name":"sender","type":"address","indexed":true,"internalType":"address"}],"anonymous":false},{"type":"event","name":"RoleRevoked","inputs":[{"name":"role","type":"bytes32","indexed":true,"internalType":"bytes32"},{"name":"account","type":"address","indexed":true,"internalType":"address"},{"name":"sender","type":"address","indexed":true,"internalType":"address"}],"anonymous":false},{"type":"event","name":"Unpaused","inputs":[{"name":"account","type":"address","indexed":false,"internalType":"address"}],"anonymous":false},{"type":"error","name":"AccessControlBadConfirmation","inputs":[]},{"type":"error","name":"AccessControlUnauthorizedAccount","inputs":[{"name":"account","type":"address","internalType":"address"},{"name":"neededRole","type":"bytes32","internalType":"bytes32"}]},{"type":"error","name":"EnforcedPause","inputs":[]},{"type":"error","name":"ExpectedPause","inputs":[]}],"bytecode":{"object":"0x60c060405234801561000f575f5ffd5b50604051611679380380611679833981810160405281019061003191906102a2565b6100435f5f1b846100e560201b60201c565b506100747f97667070c54ef182b0f5858b034beac1b6f3089aa2d3188bb1e8929f4fa9b929846100e560201b60201c565b508173ffffffffffffffffffffffffffffffffffffffff1660808173ffffffffffffffffffffffffffffffffffffffff16815250508073ffffffffffffffffffffffffffffffffffffffff1660a08173ffffffffffffffffffffffffffffffffffffffff16815250505050506102f2565b5f6100f683836101da60201b60201c565b6101d05760015f5f8581526020019081526020015f205f015f8473ffffffffffffffffffffffffffffffffffffffff1673ffffffffffffffffffffffffffffffffffffffff1681526020019081526020015f205f6101000a81548160ff02191690831515021790555061016d61023d60201b60201c565b73ffffffffffffffffffffffffffffffffffffffff168273ffffffffffffffffffffffffffffffffffffffff16847f2f8788117e7eff1d82e926ec794901d17c78024a50270940304540a733656f0d60405160405180910390a4600190506101d4565b5f90505b92915050565b5f5f5f8481526020019081526020015f205f015f8373ffffffffffffffffffffffffffffffffffffffff1673ffffffffffffffffffffffffffffffffffffffff1681526020019081526020015f205f9054906101000a900460ff16905092915050565b5f33905090565b5f5ffd5b5f73ffffffffffffffffffffffffffffffffffffffff82169050919050565b5f61027182610248565b9050919050565b61028181610267565b811461028b575f5ffd5b50565b5f8151905061029c81610278565b92915050565b5f5f5f606084860312156102b9576102b8610244565b5b5f6102c68682870161028e565b93505060206102d78682870161028e565b92505060406102e88682870161028e565b9150509250925092565b60805160a0516113356103445f395f81816103880152818161051e0152818161061e0152818161077e015261087e01525f81816103ac01528181610495015281816106f501526109bc01526113355ff3fe608060405234801561000f575f5ffd5b5060043610610109575f3560e01c80635c975abb116100a057806391d148541161006f57806391d1485414610269578063a217fddf14610299578063d547741f146102b7578063f2844fb8146102d3578063f5b541a6146102ef57610109565b80635c975abb146102075780637ab7236d1461022557806387cf2d52146102435780638a2ddd031461025f57610109565b80632f2ff15d116100dc5780632f2ff15d146101a957806336568abe146101c55780634c30c611146101e1578063595c6a67146101fd57610109565b806301ffc9a71461010d5780630921224b1461013d5780630d1cfcae1461015b578063248a9ca314610179575b5f5ffd5b61012760048036038101906101229190610ef1565b61030d565b6040516101349190610f36565b60405180910390f35b610145610386565b6040516101529190610fc9565b60405180910390f35b6101636103aa565b6040516101709190611002565b60405180910390f35b610193600480360381019061018e919061104e565b6103ce565b6040516101a09190611088565b60405180910390f35b6101c360048036038101906101be91906110dc565b6103ea565b005b6101df60048036038101906101da91906110dc565b61040c565b005b6101fb60048036038101906101f6919061104e565b610487565b005b6102056105ea565b005b61020f6106a6565b60405161021c9190610f36565b60405180910390f35b61022d6106bb565b60405161023a9190610f36565b60405180910390f35b61025d6004803603810190610258919061104e565b6106c9565b005b61026761084a565b005b610283600480360381019061027e91906110dc565b610905565b6040516102909190610f36565b60405180910390f35b6102a1610968565b6040516102ae9190611088565b60405180910390f35b6102d160048036038101906102cc91906110dc565b61096e565b005b6102ed60048036038101906102e8919061104e565b610990565b005b6102f7610a8a565b6040516103049190611088565b60405180910390f35b5f7f7965db0b000000000000000000000000000000000000000000000000000000007bffffffffffffffffffffffffffffffffffffffffffffffffffffffff1916827bffffffffffffffffffffffffffffffffffffffffffffffffffffffff1916148061037f575061037e82610aae565b5b9050919050565b7f000000000000000000000000000000000000000000000000000000000000000081565b7f000000000000000000000000000000000000000000000000000000000000000081565b5f5f5f8381526020019081526020015f20600101549050919050565b6103f3826103ce565b6103fc81610b17565b6104068383610b2b565b50505050565b610414610c14565b73ffffffffffffffffffffffffffffffffffffffff168173ffffffffffffffffffffffffffffffffffffffff1614610478576040517f6697b23200000000000000000000000000000000000000000000000000000000815260040160405180910390fd5b6104828282610c1b565b505050565b5f5f1b61049381610b17565b7f000000000000000000000000000000000000000000000000000000000000000073ffffffffffffffffffffffffffffffffffffffff166330f324c88360026040518363ffffffff1660e01b81526004016104ef92919061118d565b5f604051808303815f87803b158015610506575f5ffd5b505af1158015610518573d5f5f3e3d5ffd5b505050507f000000000000000000000000000000000000000000000000000000000000000073ffffffffffffffffffffffffffffffffffffffff166337bb21da836040518263ffffffff1660e01b8152600401610575919061120e565b5f604051808303815f87803b15801561058c575f5ffd5b505af115801561059e573d5f5f3e3d5ffd5b505050503373ffffffffffffffffffffffffffffffffffffffff16827fcf21521f5631c59d211c149cc476abceb1b3861a922ef356064ee42c67d3984f60405160405180910390a35050565b7f97667070c54ef182b0f5858b034beac1b6f3089aa2d3188bb1e8929f4fa9b92961061481610b17565b61061c610d04565b7f000000000000000000000000000000000000000000000000000000000000000073ffffffffffffffffffffffffffffffffffffffff166360678c0560016040518263ffffffff1660e01b81526004016106769190610f36565b5f604051808303815f87803b15801561068d575f5ffd5b505af115801561069f573d5f5f3e3d5ffd5b5050505050565b5f60015f9054906101000a900460ff16905090565b5f6106c46106a6565b905090565b7f97667070c54ef182b0f5858b034beac1b6f3089aa2d3188bb1e8929f4fa9b9296106f381610b17565b7f000000000000000000000000000000000000000000000000000000000000000073ffffffffffffffffffffffffffffffffffffffff166330f324c88360016040518363ffffffff1660e01b815260040161074f92919061118d565b5f604051808303815f87803b158015610766575f5ffd5b505af1158015610778573d5f5f3e3d5ffd5b505050507f000000000000000000000000000000000000000000000000000000000000000073ffffffffffffffffffffffffffffffffffffffff166337bb21da836040518263ffffffff1660e01b81526004016107d59190611284565b5f604051808303815f87803b1580156107ec575f5ffd5b505af11580156107fe573d5f5f3e3d5ffd5b505050503373ffffffffffffffffffffffffffffffffffffffff16827f36653d66fbd89d2e837647aa4dbca24d27a5805a72e825a76417ff0a1a56830560405160405180910390a35050565b7f97667070c54ef182b0f5858b034beac1b6f3089aa2d3188bb1e8929f4fa9b92961087481610b17565b61087c610d65565b7f000000000000000000000000000000000000000000000000000000000000000073ffffffffffffffffffffffffffffffffffffffff166360678c055f6040518263ffffffff1660e01b81526004016108d59190610f36565b5f604051808303815f87803b1580156108ec575f5ffd5b505af11580156108fe573d5f5f3e3d5ffd5b5050505050565b5f5f5f8481526020019081526020015f205f015f8373ffffffffffffffffffffffffffffffffffffffff1673ffffffffffffffffffffffffffffffffffffffff1681526020019081526020015f205f9054906101000a900460ff16905092915050565b5f5f1b81565b610977826103ce565b61098081610b17565b61098a8383610c1b565b50505050565b7f97667070c54ef182b0f5858b034beac1b6f3089aa2d3188bb1e8929f4fa9b9296109ba81610b17565b7f000000000000000000000000000000000000000000000000000000000000000073ffffffffffffffffffffffffffffffffffffffff166330f324c8835f6040518363ffffffff1660e01b8152600401610a1592919061118d565b5f604051808303815f87803b158015610a2c575f5ffd5b505af1158015610a3e573d5f5f3e3d5ffd5b505050503373ffffffffffffffffffffffffffffffffffffffff16827f71cdd21a96a2b147dd9d20c835a47ea64377577b7fed37dd87d7946cde87c2a460405160405180910390a35050565b7f97667070c54ef182b0f5858b034beac1b6f3089aa2d3188bb1e8929f4fa9b92981565b5f7f01ffc9a7000000000000000000000000000000000000000000000000000000007bffffffffffffffffffffffffffffffffffffffffffffffffffffffff1916827bffffffffffffffffffffffffffffffffffffffffffffffffffffffff1916149050919050565b610b2881610b23610c14565b610dc6565b50565b5f610b368383610905565b610c0a5760015f5f8581526020019081526020015f205f015f8473ffffffffffffffffffffffffffffffffffffffff1673ffffffffffffffffffffffffffffffffffffffff1681526020019081526020015f205f6101000a81548160ff021916908315150217905550610ba7610c14565b73ffffffffffffffffffffffffffffffffffffffff168273ffffffffffffffffffffffffffffffffffffffff16847f2f8788117e7eff1d82e926ec794901d17c78024a50270940304540a733656f0d60405160405180910390a460019050610c0e565b5f90505b92915050565b5f33905090565b5f610c268383610905565b15610cfa575f5f5f8581526020019081526020015f205f015f8473ffffffffffffffffffffffffffffffffffffffff1673ffffffffffffffffffffffffffffffffffffffff1681526020019081526020015f205f6101000a81548160ff021916908315150217905550610c97610c14565b73ffffffffffffffffffffffffffffffffffffffff168273ffffffffffffffffffffffffffffffffffffffff16847ff6391f5c32d9c69d2a47ea670b442974b53935d1edc7fd64eb21e047a839171b60405160405180910390a460019050610cfe565b5f90505b92915050565b610d0c610e17565b6001805f6101000a81548160ff0219169083151502179055507f62e78cea01bee320cd4e420270b5ea74000d11b0c9f74754ebdbfc544b05a258610d4e610c14565b604051610d5b91906112bf565b60405180910390a1565b610d6d610e58565b5f60015f6101000a81548160ff0219169083151502179055507f5db9ee0a495bf2e6ff9c91a7834c1ba4fdd244a5e8aa4e537bd38aeae4b073aa610daf610c14565b604051610dbc91906112bf565b60405180910390a1565b610dd08282610905565b610e135780826040517fe2517d3f000000000000000000000000000000000000000000000000000000008152600401610e0a9291906112d8565b60405180910390fd5b5050565b610e1f6106a6565b15610e56576040517fd93c066500000000000000000000000000000000000000000000000000000000815260040160405180910390fd5b565b610e606106a6565b610e96576040517f8dfc202b00000000000000000000000000000000000000000000000000000000815260040160405180910390fd5b565b5f5ffd5b5f7fffffffff0000000000000000000000000000000000000000000000000000000082169050919050565b610ed081610e9c565b8114610eda575f5ffd5b50565b5f81359050610eeb81610ec7565b92915050565b5f60208284031215610f0657610f05610e98565b5b5f610f1384828501610edd565b91505092915050565b5f8115159050919050565b610f3081610f1c565b82525050565b5f602082019050610f495f830184610f27565b92915050565b5f73ffffffffffffffffffffffffffffffffffffffff82169050919050565b5f819050919050565b5f610f91610f8c610f8784610f4f565b610f6e565b610f4f565b9050919050565b5f610fa282610f77565b9050919050565b5f610fb382610f98565b9050919050565b610fc381610fa9565b82525050565b5f602082019050610fdc5f830184610fba565b92915050565b5f610fec82610f98565b9050919050565b610ffc81610fe2565b82525050565b5f6020820190506110155f830184610ff3565b92915050565b5f819050919050565b61102d8161101b565b8114611037575f5ffd5b50565b5f8135905061104881611024565b92915050565b5f6020828403121561106357611062610e98565b5b5f6110708482850161103a565b91505092915050565b6110828161101b565b82525050565b5f60208201905061109b5f830184611079565b92915050565b5f6110ab82610f4f565b9050919050565b6110bb816110a1565b81146110c5575f5ffd5b50565b5f813590506110d6816110b2565b92915050565b5f5f604083850312156110f2576110f1610e98565b5b5f6110ff8582860161103a565b9250506020611110858286016110c8565b9150509250929050565b7f4e487b71000000000000000000000000000000000000000000000000000000005f52602160045260245ffd5b600381106111585761115761111a565b5b50565b5f81905061116882611147565b919050565b5f6111778261115b565b9050919050565b6111878161116d565b82525050565b5f6040820190506111a05f830185611079565b6111ad602083018461117e565b9392505050565b5f82825260208201905092915050565b7f4167656e74207065726d616e656e746c79206b696c6c656400000000000000005f82015250565b5f6111f86018836111b4565b9150611203826111c4565b602082019050919050565b5f6040820190506112215f830184611079565b8181036020830152611232816111ec565b905092915050565b7f4d616e75616c6c792070617573656420766961206b696c6c20737769746368005f82015250565b5f61126e601f836111b4565b91506112798261123a565b602082019050919050565b5f6040820190506112975f830184611079565b81810360208301526112a881611262565b905092915050565b6112b9816110a1565b82525050565b5f6020820190506112d25f8301846112b0565b92915050565b5f6040820190506112eb5f8301856112b0565b6112f86020830184611079565b939250505056fea264697066735822122080bf673c6cf661842360db2e601dc346f38fd4803f1d724cf22f779afaa7e7a764736f6c63430008230033","linkReferences":{}},"methodIdentifiers":{"DEFAULT_ADMIN_ROLE()":"a217fddf","OPERATOR_ROLE()":"f5b541a6","agentRegistry()":"0d1cfcae","auditLogger()":"0921224b","getRoleAdmin(bytes32)":"248a9ca3","grantRole(bytes32,address)":"2f2ff15d","hasRole(bytes32,address)":"91d14854","isGloballyPaused()":"7ab7236d","killAgent(bytes32)":"4c30c611","pauseAgent(bytes32)":"87cf2d52","pauseAll()":"595c6a67","paused()":"5c975abb","renounceRole(bytes32,address)":"36568abe","revokeRole(bytes32,address)":"d547741f","supportsInterface(bytes4)":"01ffc9a7","unpauseAgent(bytes32)":"f2844fb8","unpauseAll()":"8a2ddd03"},"id":37}