{"abi":[{"type":"constructor","inputs":[{"name":"admin","type":"address","internalType":"address"}],"stateMutability":"nonpayable"},{"type":"function","name":"DEFAULT_ADMIN_ROLE","inputs":[],"outputs":[{"name":"","type":"bytes32","internalType":"bytes32"}],"stateMutability":"view"},{"type":"function","name":"LOGGER_ROLE","inputs":[],"outputs":[{"name":"","type":"bytes32","internalType":"bytes32"}],"stateMutability":"view"},{"type":"function","name":"getRoleAdmin","inputs":[{"name":"role","type":"bytes32","internalType":"bytes32"}],"outputs":[{"name":"","type":"bytes32","internalType":"bytes32"}],"stateMutability":"view"},{"type":"function","name":"grantRole","inputs":[{"name":"role","type":"bytes32","internalType":"bytes32"},{"name":"account","type":"address","internalType":"address"}],"outputs":[],"stateMutability":"nonpayable"},{"type":"function","name":"hasRole","inputs":[{"name":"role","type":"bytes32","internalType":"bytes32"},{"name":"account","type":"address","internalType":"address"}],"outputs":[{"name":"","type":"bool","internalType":"bool"}],"stateMutability":"view"},{"type":"function","name":"logAgentPause","inputs":[{"name":"agentId","type":"bytes32","internalType":"bytes32"},{"name":"reason","type":"string","internalType":"string"}],"outputs":[],"stateMutability":"nonpayable"},{"type":"function","name":"logApproval","inputs":[{"name":"agentId","type":"bytes32","internalType":"bytes32"},{"name":"vendor","type":"address","internalType":"address"},{"name":"amount","type":"uint256","internalType":"uint256"}],"outputs":[],"stateMutability":"nonpayable"},{"type":"function","name":"logGlobalPause","inputs":[{"name":"paused","type":"bool","internalType":"bool"}],"outputs":[],"stateMutability":"nonpayable"},{"type":"function","name":"logRejection","inputs":[{"name":"agentId","type":"bytes32","internalType":"bytes32"},{"name":"vendor","type":"address","internalType":"address"},{"name":"amount","type":"uint256","internalType":"uint256"},{"name":"reason","type":"string","internalType":"string"}],"outputs":[],"stateMutability":"nonpayable"},{"type":"function","name":"renounceRole","inputs":[{"name":"role","type":"bytes32","internalType":"bytes32"},{"name":"callerConfirmation","type":"address","internalType":"address"}],"outputs":[],"stateMutability":"nonpayable"},{"type":"function","name":"revokeRole","inputs":[{"name":"role","type":"bytes32","internalType":"bytes32"},{"name":"account","type":"address","internalType":"address"}],"outputs":[],"stateMutability":"nonpayable"},{"type":"function","name":"supportsInterface","inputs":[{"name":"interfaceId","type":"bytes4","internalType":"bytes4"}],"outputs":[{"name":"","type":"bool","internalType":"bool"}],"stateMutability":"view"},{"type":"event","name":"AgentPaused","inputs":[{"name":"agentId","type":"bytes32","indexed":true,"internalType":"bytes32"},{"name":"reason","type":"string","indexed":false,"internalType":"string"},{"name":"timestamp","type":"uint256","indexed":false,"internalType":"uint256"}],"anonymous":false},{"type":"event","name":"GlobalPause","inputs":[{"name":"paused","type":"bool","indexed":false,"internalType":"bool"},{"name":"timestamp","type":"uint256","indexed":false,"internalType":"uint256"}],"anonymous":false},{"type":"event","name":"RoleAdminChanged","inputs":[{"name":"role","type":"bytes32","indexed":true,"internalType":"bytes32"},{"name":"previousAdminRole","type":"bytes32","indexed":true,"internalType":"bytes32"},{"name":"newAdminRole","type":"bytes32","indexed":true,"internalType":"bytes32"}],"anonymous":false},{"type":"event","name":"RoleGranted","inputs":[{"name":"role","type":"bytes32","indexed":true,"internalType":"bytes32"},{"name":"account","type":"address","indexed":true,"internalType":"address"},{"name":"sender","type":"address","indexed":true,"internalType":"address"}],"anonymous":false},{"type":"event","name":"RoleRevoked","inputs":[{"name":"role","type":"bytes32","indexed":true,"internalType":"bytes32"},{"name":"account","type":"address","indexed":true,"internalType":"address"},{"name":"sender","type":"address","indexed":true,"internalType":"address"}],"anonymous":false},{"type":"event","name":"SpendApproved","inputs":[{"name":"agentId","type":"bytes32","indexed":true,"internalType":"bytes32"},{"name":"vendor","type":"address","indexed":true,"internalType":"address"},{"name":"amount","type":"uint256","indexed":false,"internalType":"uint256"},{"name":"timestamp","type":"uint256","indexed":false,"internalType":"uint256"}],"anonymous":false},{"type":"event","name":"SpendRejected","inputs":[{"name":"agentId","type":"bytes32","indexed":true,"internalType":"bytes32"},{"name":"vendor","type":"address","indexed":true,"internalType":"address"},{"name":"amount","type":"uint256","indexed":false,"internalType":"uint256"},{"name":"reason","type":"string","indexed":false,"internalType":"string"},{"name":"timestamp","type":"uint256","indexed":false,"internalType":"uint256"}],"anonymous":false},{"type":"error","name":"AccessControlBadConfirmation","inputs":[]},{"type":"error","name":"AccessControlUnauthorizedAccount","inputs":[{"name":"account","type":"address","internalType":"address"},{"name":"neededRole","type":"bytes32","internalType":"bytes32"}]}],"bytecode":{"object":"0x608060405234801561000f575f5ffd5b5060405161109d38038061109d83398181016040528101906100319190610238565b6100435f5f1b8261007b60201b60201c565b506100747f566c814873eed56a69b28c40ab27cc2cb150d74068bae3e884ccd44f8de60f8a8261007b60201b60201c565b5050610263565b5f61008c838361017060201b60201c565b6101665760015f5f8581526020019081526020015f205f015f8473ffffffffffffffffffffffffffffffffffffffff1673ffffffffffffffffffffffffffffffffffffffff1681526020019081526020015f205f6101000a81548160ff0219169083151502179055506101036101d360201b60201c565b73ffffffffffffffffffffffffffffffffffffffff168273ffffffffffffffffffffffffffffffffffffffff16847f2f8788117e7eff1d82e926ec794901d17c78024a50270940304540a733656f0d60405160405180910390a46001905061016a565b5f90505b92915050565b5f5f5f8481526020019081526020015f205f015f8373ffffffffffffffffffffffffffffffffffffffff1673ffffffffffffffffffffffffffffffffffffffff1681526020019081526020015f205f9054906101000a900460ff16905092915050565b5f33905090565b5f5ffd5b5f73ffffffffffffffffffffffffffffffffffffffff82169050919050565b5f610207826101de565b9050919050565b610217816101fd565b8114610221575f5ffd5b50565b5f815190506102328161020e565b92915050565b5f6020828403121561024d5761024c6101da565b5b5f61025a84828501610224565b91505092915050565b610e2d806102705f395ff3fe608060405234801561000f575f5ffd5b50600436106100b2575f3560e01c8063566805081161006f578063566805081461018657806360678c05146101a25780637bf0fbde146101be57806391d14854146101dc578063a217fddf1461020c578063d547741f1461022a576100b2565b806301ffc9a7146100b657806319cb0280146100e6578063248a9ca3146101025780632f2ff15d1461013257806336568abe1461014e57806337bb21da1461016a575b5f5ffd5b6100d060048036038101906100cb9190610906565b610246565b6040516100dd919061094b565b60405180910390f35b61010060048036038101906100fb9190610a85565b6102bf565b005b61011c60048036038101906101179190610b09565b610346565b6040516101299190610b43565b60405180910390f35b61014c60048036038101906101479190610b5c565b610362565b005b61016860048036038101906101639190610b5c565b610384565b005b610184600480360381019061017f9190610b9a565b6103ff565b005b6101a0600480360381019061019b9190610bf7565b61046b565b005b6101bc60048036038101906101b79190610c71565b6104ec565b005b6101c6610553565b6040516101d39190610b43565b60405180910390f35b6101f660048036038101906101f19190610b5c565b610577565b604051610203919061094b565b60405180910390f35b6102146105da565b6040516102219190610b43565b60405180910390f35b610244600480360381019061023f9190610b5c565b6105e0565b005b5f7f7965db0b000000000000000000000000000000000000000000000000000000007bffffffffffffffffffffffffffffffffffffffffffffffffffffffff1916827bffffffffffffffffffffffffffffffffffffffffffffffffffffffff191614806102b857506102b782610602565b5b9050919050565b7f566c814873eed56a69b28c40ab27cc2cb150d74068bae3e884ccd44f8de60f8a6102e98161066b565b8473ffffffffffffffffffffffffffffffffffffffff16867fc21d5705d6ed0754e3dd117f22271564001027e3aa6a29afdb4e77e1f18763b2868686426040516103369493929190610d05565b60405180910390a3505050505050565b5f5f5f8381526020019081526020015f20600101549050919050565b61036b82610346565b6103748161066b565b61037e838361067f565b50505050565b61038c610768565b73ffffffffffffffffffffffffffffffffffffffff168173ffffffffffffffffffffffffffffffffffffffff16146103f0576040517f6697b23200000000000000000000000000000000000000000000000000000000815260040160405180910390fd5b6103fa828261076f565b505050565b7f566c814873eed56a69b28c40ab27cc2cb150d74068bae3e884ccd44f8de60f8a6104298161066b565b837fae386761ca7664b7b470cb616af44263667fed5f6d03542087fe3c39488aadd184844260405161045d93929190610d43565b60405180910390a250505050565b7f566c814873eed56a69b28c40ab27cc2cb150d74068bae3e884ccd44f8de60f8a6104958161066b565b8273ffffffffffffffffffffffffffffffffffffffff16847fb69bbea47f44d46ae2e16c1023ee04735862b254e5bdee623ded7906bf018d0e84426040516104de929190610d73565b60405180910390a350505050565b7f566c814873eed56a69b28c40ab27cc2cb150d74068bae3e884ccd44f8de60f8a6105168161066b565b7ff7eef407a6da29f257facaaefd98c842600fbee6ecbaa4f56092c8286d53dccd8242604051610547929190610d9a565b60405180910390a15050565b7f566c814873eed56a69b28c40ab27cc2cb150d74068bae3e884ccd44f8de60f8a81565b5f5f5f8481526020019081526020015f205f015f8373ffffffffffffffffffffffffffffffffffffffff1673ffffffffffffffffffffffffffffffffffffffff1681526020019081526020015f205f9054906101000a900460ff16905092915050565b5f5f1b81565b6105e982610346565b6105f28161066b565b6105fc838361076f565b50505050565b5f7f01ffc9a7000000000000000000000000000000000000000000000000000000007bffffffffffffffffffffffffffffffffffffffffffffffffffffffff1916827bffffffffffffffffffffffffffffffffffffffffffffffffffffffff1916149050919050565b61067c81610677610768565b610858565b50565b5f61068a8383610577565b61075e5760015f5f8581526020019081526020015f205f015f8473ffffffffffffffffffffffffffffffffffffffff1673ffffffffffffffffffffffffffffffffffffffff1681526020019081526020015f205f6101000a81548160ff0219169083151502179055506106fb610768565b73ffffffffffffffffffffffffffffffffffffffff168273ffffffffffffffffffffffffffffffffffffffff16847f2f8788117e7eff1d82e926ec794901d17c78024a50270940304540a733656f0d60405160405180910390a460019050610762565b5f90505b92915050565b5f33905090565b5f61077a8383610577565b1561084e575f5f5f8581526020019081526020015f205f015f8473ffffffffffffffffffffffffffffffffffffffff1673ffffffffffffffffffffffffffffffffffffffff1681526020019081526020015f205f6101000a81548160ff0219169083151502179055506107eb610768565b73ffffffffffffffffffffffffffffffffffffffff168273ffffffffffffffffffffffffffffffffffffffff16847ff6391f5c32d9c69d2a47ea670b442974b53935d1edc7fd64eb21e047a839171b60405160405180910390a460019050610852565b5f90505b92915050565b6108628282610577565b6108a55780826040517fe2517d3f00000000000000000000000000000000000000000000000000000000815260040161089c929190610dd0565b60405180910390fd5b5050565b5f5ffd5b5f5ffd5b5f7fffffffff0000000000000000000000000000000000000000000000000000000082169050919050565b6108e5816108b1565b81146108ef575f5ffd5b50565b5f81359050610900816108dc565b92915050565b5f6020828403121561091b5761091a6108a9565b5b5f610928848285016108f2565b91505092915050565b5f8115159050919050565b61094581610931565b82525050565b5f60208201905061095e5f83018461093c565b92915050565b5f819050919050565b61097681610964565b8114610980575f5ffd5b50565b5f813590506109918161096d565b92915050565b5f73ffffffffffffffffffffffffffffffffffffffff82169050919050565b5f6109c082610997565b9050919050565b6109d0816109b6565b81146109da575f5ffd5b50565b5f813590506109eb816109c7565b92915050565b5f819050919050565b610a03816109f1565b8114610a0d575f5ffd5b50565b5f81359050610a1e816109fa565b92915050565b5f5ffd5b5f5ffd5b5f5ffd5b5f5f83601f840112610a4557610a44610a24565b5b8235905067ffffffffffffffff811115610a6257610a61610a28565b5b602083019150836001820283011115610a7e57610a7d610a2c565b5b9250929050565b5f5f5f5f5f60808688031215610a9e57610a9d6108a9565b5b5f610aab88828901610983565b9550506020610abc888289016109dd565b9450506040610acd88828901610a10565b935050606086013567ffffffffffffffff811115610aee57610aed6108ad565b5b610afa88828901610a30565b92509250509295509295909350565b5f60208284031215610b1e57610b1d6108a9565b5b5f610b2b84828501610983565b91505092915050565b610b3d81610964565b82525050565b5f602082019050610b565f830184610b34565b92915050565b5f5f60408385031215610b7257610b716108a9565b5b5f610b7f85828601610983565b9250506020610b90858286016109dd565b9150509250929050565b5f5f5f60408486031215610bb157610bb06108a9565b5b5f610bbe86828701610983565b935050602084013567ffffffffffffffff811115610bdf57610bde6108ad565b5b610beb86828701610a30565b92509250509250925092565b5f5f5f60608486031215610c0e57610c0d6108a9565b5b5f610c1b86828701610983565b9350506020610c2c868287016109dd565b9250506040610c3d86828701610a10565b9150509250925092565b610c5081610931565b8114610c5a575f5ffd5b50565b5f81359050610c6b81610c47565b92915050565b5f60208284031215610c8657610c856108a9565b5b5f610c9384828501610c5d565b91505092915050565b610ca5816109f1565b82525050565b5f82825260208201905092915050565b828183375f83830152505050565b5f601f19601f8301169050919050565b5f610ce48385610cab565b9350610cf1838584610cbb565b610cfa83610cc9565b840190509392505050565b5f606082019050610d185f830187610c9c565b8181036020830152610d2b818587610cd9565b9050610d3a6040830184610c9c565b95945050505050565b5f6040820190508181035f830152610d5c818587610cd9565b9050610d6b6020830184610c9c565b949350505050565b5f604082019050610d865f830185610c9c565b610d936020830184610c9c565b9392505050565b5f604082019050610dad5f83018561093c565b610dba6020830184610c9c565b9392505050565b610dca816109b6565b82525050565b5f604082019050610de35f830185610dc1565b610df06020830184610b34565b939250505056fea26469706673582212200043e4d3bc31c6ae0d0e9eae2628f4faa613055f1336894d2a4867fd23615cfc64736f6c63430008230033","linkReferences":{}},"methodIdentifiers":{"DEFAULT_ADMIN_ROLE()":"a217fddf","LOGGER_ROLE()":"7bf0fbde","getRoleAdmin(bytes32)":"248a9ca3","grantRole(bytes32,address)":"2f2ff15d","hasRole(bytes32,address)":"91d14854","logAgentPause(bytes32,string)":"37bb21da","logApproval(bytes32,address,uint256)":"56680508","logGlobalPause(bool)":"60678c05","logRejection(bytes32,address,uint256,string)":"19cb0280","renounceRole(bytes32,address)":"36568abe","revokeRole(bytes32,address)":"d547741f","supportsInterface(bytes4)":"01ffc9a7"},"id":35}