{"abi":[{"type":"constructor","inputs":[{"name":"admin","type":"address","internalType":"address"}],"stateMutability":"nonpayable"},{"type":"function","name":"DEFAULT_ADMIN_ROLE","inputs":[],"outputs":[{"name":"","type":"bytes32","internalType":"bytes32"}],"stateMutability":"view"},{"type":"function","name":"OPERATOR_ROLE","inputs":[],"outputs":[{"name":"","type":"bytes32","internalType":"bytes32"}],"stateMutability":"view"},{"type":"function","name":"addVendor","inputs":[{"name":"vendor","type":"address","internalType":"address"},{"name":"name","type":"string","internalType":"string"}],"outputs":[],"stateMutability":"nonpayable"},{"type":"function","name":"getAllVendors","inputs":[],"outputs":[{"name":"","type":"address[]","internalType":"address[]"}],"stateMutability":"view"},{"type":"function","name":"getRoleAdmin","inputs":[{"name":"role","type":"bytes32","internalType":"bytes32"}],"outputs":[{"name":"","type":"bytes32","internalType":"bytes32"}],"stateMutability":"view"},{"type":"function","name":"grantRole","inputs":[{"name":"role","type":"bytes32","internalType":"bytes32"},{"name":"account","type":"address","internalType":"address"}],"outputs":[],"stateMutability":"nonpayable"},{"type":"function","name":"hasRole","inputs":[{"name":"role","type":"bytes32","internalType":"bytes32"},{"name":"account","type":"address","internalType":"address"}],"outputs":[{"name":"","type":"bool","internalType":"bool"}],"stateMutability":"view"},{"type":"function","name":"isApprovedVendor","inputs":[{"name":"vendor","type":"address","internalType":"address"}],"outputs":[{"name":"","type":"bool","internalType":"bool"}],"stateMutability":"view"},{"type":"function","name":"removeVendor","inputs":[{"name":"vendor","type":"address","internalType":"address"}],"outputs":[],"stateMutability":"nonpayable"},{"type":"function","name":"renounceRole","inputs":[{"name":"role","type":"bytes32","internalType":"bytes32"},{"name":"callerConfirmation","type":"address","internalType":"address"}],"outputs":[],"stateMutability":"nonpayable"},{"type":"function","name":"revokeRole","inputs":[{"name":"role","type":"bytes32","internalType":"bytes32"},{"name":"account","type":"address","internalType":"address"}],"outputs":[],"stateMutability":"nonpayable"},{"type":"function","name":"supportsInterface","inputs":[{"name":"interfaceId","type":"bytes4","internalType":"bytes4"}],"outputs":[{"name":"","type":"bool","internalType":"bool"}],"stateMutability":"view"},{"type":"function","name":"vendorList","inputs":[{"name":"","type":"uint256","internalType":"uint256"}],"outputs":[{"name":"","type":"address","internalType":"address"}],"stateMutability":"view"},{"type":"function","name":"vendors","inputs":[{"name":"","type":"address","internalType":"address"}],"outputs":[{"name":"name","type":"string","internalType":"string"},{"name":"approved","type":"bool","internalType":"bool"},{"name":"addedAt","type":"uint256","internalType":"uint256"}],"stateMutability":"view"},{"type":"event","name":"RoleAdminChanged","inputs":[{"name":"role","type":"bytes32","indexed":true,"internalType":"bytes32"},{"name":"previousAdminRole","type":"bytes32","indexed":true,"internalType":"bytes32"},{"name":"newAdminRole","type":"bytes32","indexed":true,"internalType":"bytes32"}],"anonymous":false},{"type":"event","name":"RoleGranted","inputs":[{"name":"role","type":"bytes32","indexed":true,"internalType":"bytes32"},{"name":"account","type":"address","indexed":true,"internalType":"address"},{"name":"sender","type":"address","indexed":true,"internalType":"address"}],"anonymous":false},{"type":"event","name":"RoleRevoked","inputs":[{"name":"role","type":"bytes32","indexed":true,"internalType":"bytes32"},{"name":"account","type":"address","indexed":true,"internalType":"address"},{"name":"sender","type":"address","indexed":true,"internalType":"address"}],"anonymous":false},{"type":"event","name":"VendorAdded","inputs":[{"name":"vendor","type":"address","indexed":true,"internalType":"address"},{"name":"name","type":"string","indexed":false,"internalType":"string"}],"anonymous":false},{"type":"event","name":"VendorRemoved","inputs":[{"name":"vendor","type":"address","indexed":true,"internalType":"address"}],"anonymous":false},{"type":"error","name":"AccessControlBadConfirmation","inputs":[]},{"type":"error","name":"AccessControlUnauthorizedAccount","inputs":[{"name":"account","type":"address","internalType":"address"},{"name":"neededRole","type":"bytes32","internalType":"bytes32"}]},{"type":"error","name":"VendorAlreadyApproved","inputs":[{"name":"vendor","type":"address","internalType":"address"}]},{"type":"error","name":"VendorNotFound","inputs":[{"name":"vendor","type":"address","internalType":"address"}]}],"bytecode":{"object":"0x608060405234801561000f575f5ffd5b506040516117ff3803806117ff83398181016040528101906100319190610238565b6100435f5f1b8261007b60201b60201c565b506100747f97667070c54ef182b0f5858b034beac1b6f3089aa2d3188bb1e8929f4fa9b9298261007b60201b60201c565b5050610263565b5f61008c838361017060201b60201c565b6101665760015f5f8581526020019081526020015f205f015f8473ffffffffffffffffffffffffffffffffffffffff1673ffffffffffffffffffffffffffffffffffffffff1681526020019081526020015f205f6101000a81548160ff0219169083151502179055506101036101d360201b60201c565b73ffffffffffffffffffffffffffffffffffffffff168273ffffffffffffffffffffffffffffffffffffffff16847f2f8788117e7eff1d82e926ec794901d17c78024a50270940304540a733656f0d60405160405180910390a46001905061016a565b5f90505b92915050565b5f5f5f8481526020019081526020015f205f015f8373ffffffffffffffffffffffffffffffffffffffff1673ffffffffffffffffffffffffffffffffffffffff1681526020019081526020015f205f9054906101000a900460ff16905092915050565b5f33905090565b5f5ffd5b5f73ffffffffffffffffffffffffffffffffffffffff82169050919050565b5f610207826101de565b9050919050565b610217816101fd565b8114610221575f5ffd5b50565b5f815190506102328161020e565b92915050565b5f6020828403121561024d5761024c6101da565b5b5f61025a84828501610224565b91505092915050565b61158f806102705f395ff3fe608060405234801561000f575f5ffd5b50600436106100e8575f3560e01c806354b622c91161008a57806391d148541161006457806391d148541461026c578063a217fddf1461029c578063d547741f146102ba578063f5b541a6146102d6576100e8565b806354b622c9146102025780635e0b421e1461021e578063840907341461023c576100e8565b806327e30c36116100c657806327e30c36146101685780632f2ff15d1461019a57806336568abe146101b65780633c34bcdb146101d2576100e8565b806301ffc9a7146100ec5780631898a1c71461011c578063248a9ca314610138575b5f5ffd5b61010660048036038101906101019190610d4f565b6102f4565b6040516101139190610d94565b60405180910390f35b61013660048036038101906101319190610e68565b61036d565b005b610152600480360381019061014d9190610ef8565b6105ba565b60405161015f9190610f32565b60405180910390f35b610182600480360381019061017d9190610f4b565b6105d6565b60405161019193929190610ffe565b60405180910390f35b6101b460048036038101906101af919061103a565b61068e565b005b6101d060048036038101906101cb919061103a565b6106b0565b005b6101ec60048036038101906101e79190610f4b565b61072b565b6040516101f99190610d94565b60405180910390f35b61021c60048036038101906102179190610f4b565b610780565b005b6102266108d6565b604051610233919061112f565b60405180910390f35b61025660048036038101906102519190611179565b610961565b60405161026391906111b3565b60405180910390f35b6102866004803603810190610281919061103a565b61099c565b6040516102939190610d94565b60405180910390f35b6102a46109ff565b6040516102b19190610f32565b60405180910390f35b6102d460048036038101906102cf919061103a565b610a05565b005b6102de610a27565b6040516102eb9190610f32565b60405180910390f35b5f7f7965db0b000000000000000000000000000000000000000000000000000000007bffffffffffffffffffffffffffffffffffffffffffffffffffffffff1916827bffffffffffffffffffffffffffffffffffffffffffffffffffffffff19161480610366575061036582610a4b565b5b9050919050565b7f97667070c54ef182b0f5858b034beac1b6f3089aa2d3188bb1e8929f4fa9b92961039781610ab4565b60015f8573ffffffffffffffffffffffffffffffffffffffff1673ffffffffffffffffffffffffffffffffffffffff1681526020019081526020015f206001015f9054906101000a900460ff161561042657836040517f32268cb900000000000000000000000000000000000000000000000000000000815260040161041d91906111b3565b60405180910390fd5b604051806060016040528084848080601f0160208091040260200160405190810160405280939291908181526020018383808284375f81840152601f19601f8201169050808301925050505050505081526020016001151581526020014281525060015f8673ffffffffffffffffffffffffffffffffffffffff1673ffffffffffffffffffffffffffffffffffffffff1681526020019081526020015f205f820151815f0190816104d79190611407565b506020820151816001015f6101000a81548160ff02191690831515021790555060408201518160020155905050600284908060018154018082558091505060019003905f5260205f20015f9091909190916101000a81548173ffffffffffffffffffffffffffffffffffffffff021916908373ffffffffffffffffffffffffffffffffffffffff1602179055508373ffffffffffffffffffffffffffffffffffffffff167f3bfb2a482f27320475ccb8d79591c7fad41a601402791a4194f05e5069d0ac0384846040516105ac929190611510565b60405180910390a250505050565b5f5f5f8381526020019081526020015f20600101549050919050565b6001602052805f5260405f205f91509050805f0180546105f590611226565b80601f016020809104026020016040519081016040528092919081815260200182805461062190611226565b801561066c5780601f106106435761010080835404028352916020019161066c565b820191905f5260205f20905b81548152906001019060200180831161064f57829003601f168201915b505050505090806001015f9054906101000a900460ff16908060020154905083565b610697826105ba565b6106a081610ab4565b6106aa8383610ac8565b50505050565b6106b8610bb1565b73ffffffffffffffffffffffffffffffffffffffff168173ffffffffffffffffffffffffffffffffffffffff161461071c576040517f6697b23200000000000000000000000000000000000000000000000000000000815260040160405180910390fd5b6107268282610bb8565b505050565b5f60015f8373ffffffffffffffffffffffffffffffffffffffff1673ffffffffffffffffffffffffffffffffffffffff1681526020019081526020015f206001015f9054906101000a900460ff169050919050565b7f97667070c54ef182b0f5858b034beac1b6f3089aa2d3188bb1e8929f4fa9b9296107aa81610ab4565b60015f8373ffffffffffffffffffffffffffffffffffffffff1673ffffffffffffffffffffffffffffffffffffffff1681526020019081526020015f206001015f9054906101000a900460ff1661083857816040517f2006f06000000000000000000000000000000000000000000000000000000000815260040161082f91906111b3565b60405180910390fd5b5f60015f8473ffffffffffffffffffffffffffffffffffffffff1673ffffffffffffffffffffffffffffffffffffffff1681526020019081526020015f206001015f6101000a81548160ff0219169083151502179055508173ffffffffffffffffffffffffffffffffffffffff167fceb8b5081e60cbeafb2db1ed5f2ef32309a5ba1d0d74ac127be270181f297e5860405160405180910390a25050565b6060600280548060200260200160405190810160405280929190818152602001828054801561095757602002820191905f5260205f20905b815f9054906101000a900473ffffffffffffffffffffffffffffffffffffffff1673ffffffffffffffffffffffffffffffffffffffff168152602001906001019080831161090e575b5050505050905090565b60028181548110610970575f80fd5b905f5260205f20015f915054906101000a900473ffffffffffffffffffffffffffffffffffffffff1681565b5f5f5f8481526020019081526020015f205f015f8373ffffffffffffffffffffffffffffffffffffffff1673ffffffffffffffffffffffffffffffffffffffff1681526020019081526020015f205f9054906101000a900460ff16905092915050565b5f5f1b81565b610a0e826105ba565b610a1781610ab4565b610a218383610bb8565b50505050565b7f97667070c54ef182b0f5858b034beac1b6f3089aa2d3188bb1e8929f4fa9b92981565b5f7f01ffc9a7000000000000000000000000000000000000000000000000000000007bffffffffffffffffffffffffffffffffffffffffffffffffffffffff1916827bffffffffffffffffffffffffffffffffffffffffffffffffffffffff1916149050919050565b610ac581610ac0610bb1565b610ca1565b50565b5f610ad3838361099c565b610ba75760015f5f8581526020019081526020015f205f015f8473ffffffffffffffffffffffffffffffffffffffff1673ffffffffffffffffffffffffffffffffffffffff1681526020019081526020015f205f6101000a81548160ff021916908315150217905550610b44610bb1565b73ffffffffffffffffffffffffffffffffffffffff168273ffffffffffffffffffffffffffffffffffffffff16847f2f8788117e7eff1d82e926ec794901d17c78024a50270940304540a733656f0d60405160405180910390a460019050610bab565b5f90505b92915050565b5f33905090565b5f610bc3838361099c565b15610c97575f5f5f8581526020019081526020015f205f015f8473ffffffffffffffffffffffffffffffffffffffff1673ffffffffffffffffffffffffffffffffffffffff1681526020019081526020015f205f6101000a81548160ff021916908315150217905550610c34610bb1565b73ffffffffffffffffffffffffffffffffffffffff168273ffffffffffffffffffffffffffffffffffffffff16847ff6391f5c32d9c69d2a47ea670b442974b53935d1edc7fd64eb21e047a839171b60405160405180910390a460019050610c9b565b5f90505b92915050565b610cab828261099c565b610cee5780826040517fe2517d3f000000000000000000000000000000000000000000000000000000008152600401610ce5929190611532565b60405180910390fd5b5050565b5f5ffd5b5f5ffd5b5f7fffffffff0000000000000000000000000000000000000000000000000000000082169050919050565b610d2e81610cfa565b8114610d38575f5ffd5b50565b5f81359050610d4981610d25565b92915050565b5f60208284031215610d6457610d63610cf2565b5b5f610d7184828501610d3b565b91505092915050565b5f8115159050919050565b610d8e81610d7a565b82525050565b5f602082019050610da75f830184610d85565b92915050565b5f73ffffffffffffffffffffffffffffffffffffffff82169050919050565b5f610dd682610dad565b9050919050565b610de681610dcc565b8114610df0575f5ffd5b50565b5f81359050610e0181610ddd565b92915050565b5f5ffd5b5f5ffd5b5f5ffd5b5f5f83601f840112610e2857610e27610e07565b5b8235905067ffffffffffffffff811115610e4557610e44610e0b565b5b602083019150836001820283011115610e6157610e60610e0f565b5b9250929050565b5f5f5f60408486031215610e7f57610e7e610cf2565b5b5f610e8c86828701610df3565b935050602084013567ffffffffffffffff811115610ead57610eac610cf6565b5b610eb986828701610e13565b92509250509250925092565b5f819050919050565b610ed781610ec5565b8114610ee1575f5ffd5b50565b5f81359050610ef281610ece565b92915050565b5f60208284031215610f0d57610f0c610cf2565b5b5f610f1a84828501610ee4565b91505092915050565b610f2c81610ec5565b82525050565b5f602082019050610f455f830184610f23565b92915050565b5f60208284031215610f6057610f5f610cf2565b5b5f610f6d84828501610df3565b91505092915050565b5f81519050919050565b5f82825260208201905092915050565b8281835e5f83830152505050565b5f601f19601f8301169050919050565b5f610fb882610f76565b610fc28185610f80565b9350610fd2818560208601610f90565b610fdb81610f9e565b840191505092915050565b5f819050919050565b610ff881610fe6565b82525050565b5f6060820190508181035f8301526110168186610fae565b90506110256020830185610d85565b6110326040830184610fef565b949350505050565b5f5f604083850312156110505761104f610cf2565b5b5f61105d85828601610ee4565b925050602061106e85828601610df3565b9150509250929050565b5f81519050919050565b5f82825260208201905092915050565b5f819050602082019050919050565b6110aa81610dcc565b82525050565b5f6110bb83836110a1565b60208301905092915050565b5f602082019050919050565b5f6110dd82611078565b6110e78185611082565b93506110f283611092565b805f5b8381101561112257815161110988826110b0565b9750611114836110c7565b9250506001810190506110f5565b5085935050505092915050565b5f6020820190508181035f83015261114781846110d3565b905092915050565b61115881610fe6565b8114611162575f5ffd5b50565b5f813590506111738161114f565b92915050565b5f6020828403121561118e5761118d610cf2565b5b5f61119b84828501611165565b91505092915050565b6111ad81610dcc565b82525050565b5f6020820190506111c65f8301846111a4565b92915050565b7f4e487b71000000000000000000000000000000000000000000000000000000005f52604160045260245ffd5b7f4e487b71000000000000000000000000000000000000000000000000000000005f52602260045260245ffd5b5f600282049050600182168061123d57607f821691505b6020821081036112505761124f6111f9565b5b50919050565b5f819050815f5260205f209050919050565b5f6020601f8301049050919050565b5f82821b905092915050565b5f600883026112b27fffffffffffffffffffffffffffffffffffffffffffffffffffffffffffffffff82611277565b6112bc8683611277565b95508019841693508086168417925050509392505050565b5f819050919050565b5f6112f76112f26112ed84610fe6565b6112d4565b610fe6565b9050919050565b5f819050919050565b611310836112dd565b61132461131c826112fe565b848454611283565b825550505050565b5f5f905090565b61133b61132c565b611346818484611307565b505050565b5f5b8281101561136c576113615f828401611333565b60018101905061134d565b505050565b601f8211156113bf57828211156113be5761138b81611256565b61139483611268565b61139d85611268565b60208610156113aa575f90505b8083016113b98284038261134b565b505050505b5b505050565b5f82821c905092915050565b5f6113df5f19846008026113c4565b1980831691505092915050565b5f6113f783836113d0565b9150826002028217905092915050565b61141082610f76565b67ffffffffffffffff811115611429576114286111cc565b5b6114338254611226565b61143e828285611371565b5f60209050601f83116001811461146f575f841561145d578287015190505b61146785826113ec565b8655506114ce565b601f19841661147d86611256565b5f5b828110156114a45784890151825560018201915060208501945060208101905061147f565b868310156114c157848901516114bd601f8916826113d0565b8355505b6001600288020188555050505b505050505050565b828183375f83830152505050565b5f6114ef8385610f80565b93506114fc8385846114d6565b61150583610f9e565b840190509392505050565b5f6020820190508181035f8301526115298184866114e4565b90509392505050565b5f6040820190506115455f8301856111a4565b6115526020830184610f23565b939250505056fea2646970667358221220f4867d1e01701e5c367d64d6d91cc54cffa96824e8cd867ec41b81618c61b0ee64736f6c63430008230033","linkReferences":{}},"methodIdentifiers":{"DEFAULT_ADMIN_ROLE()":"a217fddf","OPERATOR_ROLE()":"f5b541a6","addVendor(address,string)":"1898a1c7","getAllVendors()":"5e0b421e","getRoleAdmin(bytes32)":"248a9ca3","grantRole(bytes32,address)":"2f2ff15d","hasRole(bytes32,address)":"91d14854","isApprovedVendor(address)":"3c34bcdb","removeVendor(address)":"54b622c9","renounceRole(bytes32,address)":"36568abe","revokeRole(bytes32,address)":"d547741f","supportsInterface(bytes4)":"01ffc9a7","vendorList(uint256)":"84090734","vendors(address)":"27e30c36"},"id":39}