{"abi":[{"type":"constructor","inputs":[{"name":"admin","type":"address","internalType":"address"},{"name":"_usdc","type":"address","internalType":"address"}],"stateMutability":"nonpayable"},{"type":"function","name":"DEFAULT_ADMIN_ROLE","inputs":[],"outputs":[{"name":"","type":"bytes32","internalType":"bytes32"}],"stateMutability":"view"},{"type":"function","name":"POLICY_MANAGER_ROLE","inputs":[],"outputs":[{"name":"","type":"bytes32","internalType":"bytes32"}],"stateMutability":"view"},{"type":"function","name":"deposit","inputs":[{"name":"amount","type":"uint256","internalType":"uint256"}],"outputs":[],"stateMutability":"nonpayable"},{"type":"function","name":"disburse","inputs":[{"name":"agentId","type":"bytes32","internalType":"bytes32"},{"name":"vendor","type":"address","internalType":"address"},{"name":"amount","type":"uint256","internalType":"uint256"}],"outputs":[],"stateMutability":"nonpayable"},{"type":"function","name":"getRoleAdmin","inputs":[{"name":"role","type":"bytes32","internalType":"bytes32"}],"outputs":[{"name":"","type":"bytes32","internalType":"bytes32"}],"stateMutability":"view"},{"type":"function","name":"grantRole","inputs":[{"name":"role","type":"bytes32","internalType":"bytes32"},{"name":"account","type":"address","internalType":"address"}],"outputs":[],"stateMutability":"nonpayable"},{"type":"function","name":"hasRole","inputs":[{"name":"role","type":"bytes32","internalType":"bytes32"},{"name":"account","type":"address","internalType":"address"}],"outputs":[{"name":"","type":"bool","internalType":"bool"}],"stateMutability":"view"},{"type":"function","name":"renounceRole","inputs":[{"name":"role","type":"bytes32","internalType":"bytes32"},{"name":"callerConfirmation","type":"address","internalType":"address"}],"outputs":[],"stateMutability":"nonpayable"},{"type":"function","name":"revokeRole","inputs":[{"name":"role","type":"bytes32","internalType":"bytes32"},{"name":"account","type":"address","internalType":"address"}],"outputs":[],"stateMutability":"nonpayable"},{"type":"function","name":"setPolicyManager","inputs":[{"name":"policyManager","type":"address","internalType":"address"}],"outputs":[],"stateMutability":"nonpayable"},{"type":"function","name":"supportsInterface","inputs":[{"name":"interfaceId","type":"bytes4","internalType":"bytes4"}],"outputs":[{"name":"","type":"bool","internalType":"bool"}],"stateMutability":"view"},{"type":"function","name":"usdc","inputs":[],"outputs":[{"name":"","type":"address","internalType":"contract IERC20"}],"stateMutability":"view"},{"type":"function","name":"vaultBalance","inputs":[],"outputs":[{"name":"","type":"uint256","internalType":"uint256"}],"stateMutability":"view"},{"type":"function","name":"withdraw","inputs":[{"name":"to","type":"address","internalType":"address"},{"name":"amount","type":"uint256","internalType":"uint256"}],"outputs":[],"stateMutability":"nonpayable"},{"type":"event","name":"Deposited","inputs":[{"name":"depositor","type":"address","indexed":true,"internalType":"address"},{"name":"amount","type":"uint256","indexed":false,"internalType":"uint256"}],"anonymous":false},{"type":"event","name":"Disbursed","inputs":[{"name":"agentId","type":"bytes32","indexed":true,"internalType":"bytes32"},{"name":"vendor","type":"address","indexed":true,"internalType":"address"},{"name":"amount","type":"uint256","indexed":false,"internalType":"uint256"}],"anonymous":false},{"type":"event","name":"RoleAdminChanged","inputs":[{"name":"role","type":"bytes32","indexed":true,"internalType":"bytes32"},{"name":"previousAdminRole","type":"bytes32","indexed":true,"internalType":"bytes32"},{"name":"newAdminRole","type":"bytes32","indexed":true,"internalType":"bytes32"}],"anonymous":false},{"type":"event","name":"RoleGranted","inputs":[{"name":"role","type":"bytes32","indexed":true,"internalType":"bytes32"},{"name":"account","type":"address","indexed":true,"internalType":"address"},{"name":"sender","type":"address","indexed":true,"internalType":"address"}],"anonymous":false},{"type":"event","name":"RoleRevoked","inputs":[{"name":"role","type":"bytes32","indexed":true,"internalType":"bytes32"},{"name":"account","type":"address","indexed":true,"internalType":"address"},{"name":"sender","type":"address","indexed":true,"internalType":"address"}],"anonymous":false},{"type":"event","name":"Withdrawn","inputs":[{"name":"recipient","type":"address","indexed":true,"internalType":"address"},{"name":"amount","type":"uint256","indexed":false,"internalType":"uint256"}],"anonymous":false},{"type":"error","name":"AccessControlBadConfirmation","inputs":[]},{"type":"error","name":"AccessControlUnauthorizedAccount","inputs":[{"name":"account","type":"address","internalType":"address"},{"name":"neededRole","type":"bytes32","internalType":"bytes32"}]},{"type":"error","name":"InsufficientVaultBalance","inputs":[{"name":"requested","type":"uint256","internalType":"uint256"},{"name":"available","type":"uint256","internalType":"uint256"}]},{"type":"error","name":"ReentrancyGuardReentrantCall","inputs":[]},{"type":"error","name":"SafeERC20FailedOperation","inputs":[{"name":"token","type":"address","internalType":"address"}]},{"type":"error","name":"ZeroAmount","inputs":[]}],"bytecode":{"object":"0x60a060405234801561000f575f5ffd5b506040516116bb3803806116bb83398181016040528101906100319190610292565b600161004f6100446100a360201b60201c565b6100cc60201b60201c565b5f01819055506100675f5f1b836100d560201b60201c565b508073ffffffffffffffffffffffffffffffffffffffff1660808173ffffffffffffffffffffffffffffffffffffffff168152505050506102d0565b5f7f9b779b17422d0df92223018b32b4d1fa46e071723d6817e2486d003becc55f005f1b905090565b5f819050919050565b5f6100e683836101ca60201b60201c565b6101c05760015f5f8581526020019081526020015f205f015f8473ffffffffffffffffffffffffffffffffffffffff1673ffffffffffffffffffffffffffffffffffffffff1681526020019081526020015f205f6101000a81548160ff02191690831515021790555061015d61022d60201b60201c565b73ffffffffffffffffffffffffffffffffffffffff168273ffffffffffffffffffffffffffffffffffffffff16847f2f8788117e7eff1d82e926ec794901d17c78024a50270940304540a733656f0d60405160405180910390a4600190506101c4565b5f90505b92915050565b5f5f5f8481526020019081526020015f205f015f8373ffffffffffffffffffffffffffffffffffffffff1673ffffffffffffffffffffffffffffffffffffffff1681526020019081526020015f205f9054906101000a900460ff16905092915050565b5f33905090565b5f5ffd5b5f73ffffffffffffffffffffffffffffffffffffffff82169050919050565b5f61026182610238565b9050919050565b61027181610257565b811461027b575f5ffd5b50565b5f8151905061028c81610268565b92915050565b5f5f604083850312156102a8576102a7610234565b5b5f6102b58582860161027e565b92505060206102c68582860161027e565b9150509250929050565b6080516113a96103125f395f8181610334015281816104ae0152818161053e01528181610624015281816107b3015281816108c301526109a901526113a95ff3fe608060405234801561000f575f5ffd5b50600436106100e8575f3560e01c80636664ac911161008a578063adde41e111610064578063adde41e114610248578063b6b55f2514610264578063d547741f14610280578063f3fef3a31461029c576100e8565b80636664ac91146101de57806391d14854146101fa578063a217fddf1461022a576100e8565b8063248a9ca3116100c6578063248a9ca3146101585780632f2ff15d1461018857806336568abe146101a45780633e413bee146101c0576100e8565b806301ffc9a7146100ec5780630bf6cc081461011c5780631e1cc25f1461013a575b5f5ffd5b61010660048036038101906101019190610f8f565b6102b8565b6040516101139190610fd4565b60405180910390f35b610124610331565b6040516101319190611005565b60405180910390f35b6101426103cf565b60405161014f9190611036565b60405180910390f35b610172600480360381019061016d9190611079565b6103f3565b60405161017f9190611036565b60405180910390f35b6101a2600480360381019061019d91906110fe565b61040f565b005b6101be60048036038101906101b991906110fe565b610431565b005b6101c86104ac565b6040516101d59190611197565b60405180910390f35b6101f860048036038101906101f391906111da565b6104d0565b005b610214600480360381019061020f91906110fe565b6106c6565b6040516102219190610fd4565b60405180910390f35b610232610729565b60405161023f9190611036565b60405180910390f35b610262600480360381019061025d919061122a565b61072f565b005b61027e60048036038101906102799190611255565b61076a565b005b61029a600480360381019061029591906110fe565b610851565b005b6102b660048036038101906102b19190611280565b610873565b005b5f7f7965db0b000000000000000000000000000000000000000000000000000000007bffffffffffffffffffffffffffffffffffffffffffffffffffffffff1916827bffffffffffffffffffffffffffffffffffffffffffffffffffffffff1916148061032a575061032982610a49565b5b9050919050565b5f7f000000000000000000000000000000000000000000000000000000000000000073ffffffffffffffffffffffffffffffffffffffff166370a08231306040518263ffffffff1660e01b815260040161038b91906112cd565b602060405180830381865afa1580156103a6573d5f5f3e3d5ffd5b505050506040513d601f19601f820116820180604052508101906103ca91906112fa565b905090565b7f2724e1c963eb1465b51230910d2ca7be74b71883f8cab72076d8c12e086c2b4881565b5f5f5f8381526020019081526020015f20600101549050919050565b610418826103f3565b61042181610ab2565b61042b8383610ac6565b50505050565b610439610baf565b73ffffffffffffffffffffffffffffffffffffffff168173ffffffffffffffffffffffffffffffffffffffff161461049d576040517f6697b23200000000000000000000000000000000000000000000000000000000815260040160405180910390fd5b6104a78282610bb6565b505050565b7f000000000000000000000000000000000000000000000000000000000000000081565b7f2724e1c963eb1465b51230910d2ca7be74b71883f8cab72076d8c12e086c2b486104fa81610ab2565b610502610c9f565b5f820361053b576040517f1f2a200500000000000000000000000000000000000000000000000000000000815260040160405180910390fd5b5f7f000000000000000000000000000000000000000000000000000000000000000073ffffffffffffffffffffffffffffffffffffffff166370a08231306040518263ffffffff1660e01b815260040161059591906112cd565b602060405180830381865afa1580156105b0573d5f5f3e3d5ffd5b505050506040513d601f19601f820116820180604052508101906105d491906112fa565b90508083111561061d5782816040517fbce50671000000000000000000000000000000000000000000000000000000008152600401610614929190611325565b60405180910390fd5b61066884847f000000000000000000000000000000000000000000000000000000000000000073ffffffffffffffffffffffffffffffffffffffff16610cc19092919063ffffffff16565b8373ffffffffffffffffffffffffffffffffffffffff16857f302012efaba0f36aed597416d0af5d6a1b95a3bada1ee6c6ab7b1abe23469411856040516106af9190611005565b60405180910390a3506106c0610d14565b50505050565b5f5f5f8481526020019081526020015f205f015f8373ffffffffffffffffffffffffffffffffffffffff1673ffffffffffffffffffffffffffffffffffffffff1681526020019081526020015f205f9054906101000a900460ff16905092915050565b5f5f1b81565b5f5f1b61073b81610ab2565b6107657f2724e1c963eb1465b51230910d2ca7be74b71883f8cab72076d8c12e086c2b4883610ac6565b505050565b610772610c9f565b5f81036107ab576040517f1f2a200500000000000000000000000000000000000000000000000000000000815260040160405180910390fd5b6107f83330837f000000000000000000000000000000000000000000000000000000000000000073ffffffffffffffffffffffffffffffffffffffff16610d2e909392919063ffffffff16565b3373ffffffffffffffffffffffffffffffffffffffff167f2da466a7b24304f47e87fa2e1e5a81b9831ce54fec19055ce277ca2f39ba42c48260405161083e9190611005565b60405180910390a261084e610d14565b50565b61085a826103f3565b61086381610ab2565b61086d8383610bb6565b50505050565b5f5f1b61087f81610ab2565b610887610c9f565b5f82036108c0576040517f1f2a200500000000000000000000000000000000000000000000000000000000815260040160405180910390fd5b5f7f000000000000000000000000000000000000000000000000000000000000000073ffffffffffffffffffffffffffffffffffffffff166370a08231306040518263ffffffff1660e01b815260040161091a91906112cd565b602060405180830381865afa158015610935573d5f5f3e3d5ffd5b505050506040513d601f19601f8201168201806040525081019061095991906112fa565b9050808311156109a25782816040517fbce50671000000000000000000000000000000000000000000000000000000008152600401610999929190611325565b60405180910390fd5b6109ed84847f000000000000000000000000000000000000000000000000000000000000000073ffffffffffffffffffffffffffffffffffffffff16610cc19092919063ffffffff16565b8373ffffffffffffffffffffffffffffffffffffffff167f7084f5476618d8e60b11ef0d7d3f06914655adb8793e28ff7f018d4c76d505d584604051610a339190611005565b60405180910390a250610a44610d14565b505050565b5f7f01ffc9a7000000000000000000000000000000000000000000000000000000007bffffffffffffffffffffffffffffffffffffffffffffffffffffffff1916827bffffffffffffffffffffffffffffffffffffffffffffffffffffffff1916149050919050565b610ac381610abe610baf565b610d83565b50565b5f610ad183836106c6565b610ba55760015f5f8581526020019081526020015f205f015f8473ffffffffffffffffffffffffffffffffffffffff1673ffffffffffffffffffffffffffffffffffffffff1681526020019081526020015f205f6101000a81548160ff021916908315150217905550610b42610baf565b73ffffffffffffffffffffffffffffffffffffffff168273ffffffffffffffffffffffffffffffffffffffff16847f2f8788117e7eff1d82e926ec794901d17c78024a50270940304540a733656f0d60405160405180910390a460019050610ba9565b5f90505b92915050565b5f33905090565b5f610bc183836106c6565b15610c95575f5f5f8581526020019081526020015f205f015f8473ffffffffffffffffffffffffffffffffffffffff1673ffffffffffffffffffffffffffffffffffffffff1681526020019081526020015f205f6101000a81548160ff021916908315150217905550610c32610baf565b73ffffffffffffffffffffffffffffffffffffffff168273ffffffffffffffffffffffffffffffffffffffff16847ff6391f5c32d9c69d2a47ea670b442974b53935d1edc7fd64eb21e047a839171b60405160405180910390a460019050610c99565b5f90505b92915050565b610ca7610dd4565b6002610cb9610cb4610e15565b610e3e565b5f0181905550565b610cce8383836001610e47565b610d0f57826040517f5274afe7000000000000000000000000000000000000000000000000000000008152600401610d0691906112cd565b60405180910390fd5b505050565b6001610d26610d21610e15565b610e3e565b5f0181905550565b610d3c848484846001610ea9565b610d7d57836040517f5274afe7000000000000000000000000000000000000000000000000000000008152600401610d7491906112cd565b60405180910390fd5b50505050565b610d8d82826106c6565b610dd05780826040517fe2517d3f000000000000000000000000000000000000000000000000000000008152600401610dc792919061134c565b60405180910390fd5b5050565b610ddc610f1a565b15610e13576040517f3ee5aeb500000000000000000000000000000000000000000000000000000000815260040160405180910390fd5b565b5f7f9b779b17422d0df92223018b32b4d1fa46e071723d6817e2486d003becc55f005f1b905090565b5f819050919050565b5f5f63a9059cbb60e01b9050604051815f525f1960601c86166004528460245260205f60445f5f8b5af1925060015f51148316610e9b578383151615610e8f573d5f823e3d81fd5b5f873b113d1516831692505b806040525050949350505050565b5f5f6323b872dd60e01b9050604051815f525f1960601c87166004525f1960601c86166024528460445260205f60645f5f8c5af1925060015f51148316610f07578383151615610efb573d5f823e3d81fd5b5f883b113d1516831692505b806040525f606052505095945050505050565b5f6002610f2d610f28610e15565b610e3e565b5f015414905090565b5f5ffd5b5f7fffffffff0000000000000000000000000000000000000000000000000000000082169050919050565b610f6e81610f3a565b8114610f78575f5ffd5b50565b5f81359050610f8981610f65565b92915050565b5f60208284031215610fa457610fa3610f36565b5b5f610fb184828501610f7b565b91505092915050565b5f8115159050919050565b610fce81610fba565b82525050565b5f602082019050610fe75f830184610fc5565b92915050565b5f819050919050565b610fff81610fed565b82525050565b5f6020820190506110185f830184610ff6565b92915050565b5f819050919050565b6110308161101e565b82525050565b5f6020820190506110495f830184611027565b92915050565b6110588161101e565b8114611062575f5ffd5b50565b5f813590506110738161104f565b92915050565b5f6020828403121561108e5761108d610f36565b5b5f61109b84828501611065565b91505092915050565b5f73ffffffffffffffffffffffffffffffffffffffff82169050919050565b5f6110cd826110a4565b9050919050565b6110dd816110c3565b81146110e7575f5ffd5b50565b5f813590506110f8816110d4565b92915050565b5f5f6040838503121561111457611113610f36565b5b5f61112185828601611065565b9250506020611132858286016110ea565b9150509250929050565b5f819050919050565b5f61115f61115a611155846110a4565b61113c565b6110a4565b9050919050565b5f61117082611145565b9050919050565b5f61118182611166565b9050919050565b61119181611177565b82525050565b5f6020820190506111aa5f830184611188565b92915050565b6111b981610fed565b81146111c3575f5ffd5b50565b5f813590506111d4816111b0565b92915050565b5f5f5f606084860312156111f1576111f0610f36565b5b5f6111fe86828701611065565b935050602061120f868287016110ea565b9250506040611220868287016111c6565b9150509250925092565b5f6020828403121561123f5761123e610f36565b5b5f61124c848285016110ea565b91505092915050565b5f6020828403121561126a57611269610f36565b5b5f611277848285016111c6565b91505092915050565b5f5f6040838503121561129657611295610f36565b5b5f6112a3858286016110ea565b92505060206112b4858286016111c6565b9150509250929050565b6112c7816110c3565b82525050565b5f6020820190506112e05f8301846112be565b92915050565b5f815190506112f4816111b0565b92915050565b5f6020828403121561130f5761130e610f36565b5b5f61131c848285016112e6565b91505092915050565b5f6040820190506113385f830185610ff6565b6113456020830184610ff6565b9392505050565b5f60408201905061135f5f8301856112be565b61136c6020830184611027565b939250505056fea264697066735822122018c9e42b9db941ae2080fb8d5e5de80802f591b939fc401ec2d5995777c89be564736f6c63430008230033","linkReferences":{}},"methodIdentifiers":{"DEFAULT_ADMIN_ROLE()":"a217fddf","POLICY_MANAGER_ROLE()":"1e1cc25f","deposit(uint256)":"b6b55f25","disburse(bytes32,address,uint256)":"6664ac91","getRoleAdmin(bytes32)":"248a9ca3","grantRole(bytes32,address)":"2f2ff15d","hasRole(bytes32,address)":"91d14854","renounceRole(bytes32,address)":"36568abe","revokeRole(bytes32,address)":"d547741f","setPolicyManager(address)":"adde41e1","supportsInterface(bytes4)":"01ffc9a7","usdc()":"3e413bee","vaultBalance()":"0bf6cc08","withdraw(address,uint256)":"f3fef3a3"},"id":38}