{"abi":[{"type":"constructor","inputs":[{"name":"admin","type":"address","internalType":"address"},{"name":"_agentRegistry","type":"address","internalType":"address"},{"name":"_vendorAllowlist","type":"address","internalType":"address"},{"name":"_treasuryVault","type":"address","internalType":"address"},{"name":"_auditLogger","type":"address","internalType":"address"},{"name":"_killSwitch","type":"address","internalType":"address"}],"stateMutability":"nonpayable"},{"type":"function","name":"AGENT_ROLE","inputs":[],"outputs":[{"name":"","type":"bytes32","internalType":"bytes32"}],"stateMutability":"view"},{"type":"function","name":"DEFAULT_ADMIN_ROLE","inputs":[],"outputs":[{"name":"","type":"bytes32","internalType":"bytes32"}],"stateMutability":"view"},{"type":"function","name":"agentRegistry","inputs":[],"outputs":[{"name":"","type":"address","internalType":"contract AgentRegistry"}],"stateMutability":"view"},{"type":"function","name":"auditLogger","inputs":[],"outputs":[{"name":"","type":"address","internalType":"contract AuditLogger"}],"stateMutability":"view"},{"type":"function","name":"checkSpend","inputs":[{"name":"agentId","type":"bytes32","internalType":"bytes32"},{"name":"vendor","type":"address","internalType":"address"},{"name":"amount","type":"uint256","internalType":"uint256"}],"outputs":[{"name":"","type":"bool","internalType":"bool"}],"stateMutability":"nonpayable"},{"type":"function","name":"getRoleAdmin","inputs":[{"name":"role","type":"bytes32","internalType":"bytes32"}],"outputs":[{"name":"","type":"bytes32","internalType":"bytes32"}],"stateMutability":"view"},{"type":"function","name":"getSpend","inputs":[{"name":"agentId","type":"bytes32","internalType":"bytes32"}],"outputs":[{"name":"dailySpend","type":"uint256","internalType":"uint256"},{"name":"monthlySpend","type":"uint256","internalType":"uint256"},{"name":"dailyLimit","type":"uint256","internalType":"uint256"},{"name":"monthlyLimit","type":"uint256","internalType":"uint256"}],"stateMutability":"view"},{"type":"function","name":"grantRole","inputs":[{"name":"role","type":"bytes32","internalType":"bytes32"},{"name":"account","type":"address","internalType":"address"}],"outputs":[],"stateMutability":"nonpayable"},{"type":"function","name":"hasRole","inputs":[{"name":"role","type":"bytes32","internalType":"bytes32"},{"name":"account","type":"address","internalType":"address"}],"outputs":[{"name":"","type":"bool","internalType":"bool"}],"stateMutability":"view"},{"type":"function","name":"killSwitch","inputs":[],"outputs":[{"name":"","type":"address","internalType":"contract EmergencyKillSwitch"}],"stateMutability":"view"},{"type":"function","name":"policies","inputs":[{"name":"","type":"bytes32","internalType":"bytes32"}],"outputs":[{"name":"dailyLimit","type":"uint256","internalType":"uint256"},{"name":"monthlyLimit","type":"uint256","internalType":"uint256"},{"name":"perTxLimit","type":"uint256","internalType":"uint256"},{"name":"cooldown","type":"uint256","internalType":"uint256"},{"name":"lastSpendTimestamp","type":"uint256","internalType":"uint256"},{"name":"currentDailySpend","type":"uint256","internalType":"uint256"},{"name":"currentMonthlySpend","type":"uint256","internalType":"uint256"},{"name":"dailyCycleStart","type":"uint256","internalType":"uint256"},{"name":"monthlyCycleStart","type":"uint256","internalType":"uint256"}],"stateMutability":"view"},{"type":"function","name":"renounceRole","inputs":[{"name":"role","type":"bytes32","internalType":"bytes32"},{"name":"callerConfirmation","type":"address","internalType":"address"}],"outputs":[],"stateMutability":"nonpayable"},{"type":"function","name":"revokeRole","inputs":[{"name":"role","type":"bytes32","internalType":"bytes32"},{"name":"account","type":"address","internalType":"address"}],"outputs":[],"stateMutability":"nonpayable"},{"type":"function","name":"setPolicy","inputs":[{"name":"agentId","type":"bytes32","internalType":"bytes32"},{"name":"dailyLimit","type":"uint256","internalType":"uint256"},{"name":"monthlyLimit","type":"uint256","internalType":"uint256"},{"name":"perTxLimit","type":"uint256","internalType":"uint256"},{"name":"cooldown","type":"uint256","internalType":"uint256"},{"name":"resetSpend","type":"bool","internalType":"bool"}],"outputs":[],"stateMutability":"nonpayable"},{"type":"function","name":"supportsInterface","inputs":[{"name":"interfaceId","type":"bytes4","internalType":"bytes4"}],"outputs":[{"name":"","type":"bool","internalType":"bool"}],"stateMutability":"view"},{"type":"function","name":"treasuryVault","inputs":[],"outputs":[{"name":"","type":"address","internalType":"contract TreasuryVault"}],"stateMutability":"view"},{"type":"function","name":"vendorAllowlist","inputs":[],"outputs":[{"name":"","type":"address","internalType":"contract VendorAllowlist"}],"stateMutability":"view"},{"type":"event","name":"PolicySet","inputs":[{"name":"agentId","type":"bytes32","indexed":true,"internalType":"bytes32"},{"name":"dailyLimit","type":"uint256","indexed":false,"internalType":"uint256"},{"name":"monthlyLimit","type":"uint256","indexed":false,"internalType":"uint256"},{"name":"perTxLimit","type":"uint256","indexed":false,"internalType":"uint256"}],"anonymous":false},{"type":"event","name":"RoleAdminChanged","inputs":[{"name":"role","type":"bytes32","indexed":true,"internalType":"bytes32"},{"name":"previousAdminRole","type":"bytes32","indexed":true,"internalType":"bytes32"},{"name":"newAdminRole","type":"bytes32","indexed":true,"internalType":"bytes32"}],"anonymous":false},{"type":"event","name":"RoleGranted","inputs":[{"name":"role","type":"bytes32","indexed":true,"internalType":"bytes32"},{"name":"account","type":"address","indexed":true,"internalType":"address"},{"name":"sender","type":"address","indexed":true,"internalType":"address"}],"anonymous":false},{"type":"event","name":"RoleRevoked","inputs":[{"name":"role","type":"bytes32","indexed":true,"internalType":"bytes32"},{"name":"account","type":"address","indexed":true,"internalType":"address"},{"name":"sender","type":"address","indexed":true,"internalType":"address"}],"anonymous":false},{"type":"event","name":"SpendBlocked","inputs":[{"name":"agentId","type":"bytes32","indexed":true,"internalType":"bytes32"},{"name":"vendor","type":"address","indexed":true,"internalType":"address"},{"name":"amount","type":"uint256","indexed":false,"internalType":"uint256"},{"name":"reason","type":"string","indexed":false,"internalType":"string"}],"anonymous":false},{"type":"event","name":"SpendExecuted","inputs":[{"name":"agentId","type":"bytes32","indexed":true,"internalType":"bytes32"},{"name":"vendor","type":"address","indexed":true,"internalType":"address"},{"name":"amount","type":"uint256","indexed":false,"internalType":"uint256"}],"anonymous":false},{"type":"error","name":"AccessControlBadConfirmation","inputs":[]},{"type":"error","name":"AccessControlUnauthorizedAccount","inputs":[{"name":"account","type":"address","internalType":"address"},{"name":"neededRole","type":"bytes32","internalType":"bytes32"}]},{"type":"error","name":"CheckFailed","inputs":[{"name":"reason","type":"string","internalType":"string"}]},{"type":"error","name":"PolicyNotSet","inputs":[{"name":"agentId","type":"bytes32","internalType":"bytes32"}]}],"bytecode":{"object":"0x610120604052348015610010575f5ffd5b5060405161284038038061284083398181016040528101906100329190610343565b6100445f5f1b8761018660201b60201c565b506100757fcab5a0bfe0b79d2c4b1c2e02599fa044d115b7511f9659307cb42769509677098761018660201b60201c565b508473ffffffffffffffffffffffffffffffffffffffff1660808173ffffffffffffffffffffffffffffffffffffffff16815250508373ffffffffffffffffffffffffffffffffffffffff1660a08173ffffffffffffffffffffffffffffffffffffffff16815250508273ffffffffffffffffffffffffffffffffffffffff1660c08173ffffffffffffffffffffffffffffffffffffffff16815250508173ffffffffffffffffffffffffffffffffffffffff1660e08173ffffffffffffffffffffffffffffffffffffffff16815250508073ffffffffffffffffffffffffffffffffffffffff166101008173ffffffffffffffffffffffffffffffffffffffff16815250505050505050506103cc565b5f610197838361027b60201b60201c565b6102715760015f5f8581526020019081526020015f205f015f8473ffffffffffffffffffffffffffffffffffffffff1673ffffffffffffffffffffffffffffffffffffffff1681526020019081526020015f205f6101000a81548160ff02191690831515021790555061020e6102de60201b60201c565b73ffffffffffffffffffffffffffffffffffffffff168273ffffffffffffffffffffffffffffffffffffffff16847f2f8788117e7eff1d82e926ec794901d17c78024a50270940304540a733656f0d60405160405180910390a460019050610275565b5f90505b92915050565b5f5f5f8481526020019081526020015f205f015f8373ffffffffffffffffffffffffffffffffffffffff1673ffffffffffffffffffffffffffffffffffffffff1681526020019081526020015f205f9054906101000a900460ff16905092915050565b5f33905090565b5f5ffd5b5f73ffffffffffffffffffffffffffffffffffffffff82169050919050565b5f610312826102e9565b9050919050565b61032281610308565b811461032c575f5ffd5b50565b5f8151905061033d81610319565b92915050565b5f5f5f5f5f5f60c0878903121561035d5761035c6102e5565b5b5f61036a89828a0161032f565b965050602061037b89828a0161032f565b955050604061038c89828a0161032f565b945050606061039d89828a0161032f565b93505060806103ae89828a0161032f565b92505060a06103bf89828a0161032f565b9150509295509295509295565b60805160a05160c05160e051610100516123b96104875f395f81816106bd015261098101525f81816103f50152818161081201528181610a4c01528181610c0701528181610dc201528181610f76015281816111480152818161128a0152818161144d015261168301525f81816106e101526115f901525f81816105f50152610ced01525f81816104190152818161089e01528181610b3201528181610e4e015281816110020152818161131601526114d901526123b95ff3fe608060405234801561000f575f5ffd5b5060043610610109575f3560e01c8063810a30a0116100a0578063ada146981161006f578063ada14698146102ba578063af8b1c6f146102d8578063d547741f146102f6578063ddbfd8ef14610312578063f71661601461034a57610109565b8063810a30a01461021b57806381862cbd1461023957806391d148541461026c578063a217fddf1461029c57610109565b8063248a9ca3116100dc578063248a9ca31461019757806329fbbea8146101c75780632f2ff15d146101e357806336568abe146101ff57610109565b806301ffc9a71461010d5780630921224b1461013d5780630d1cfcae1461015b57806322459e1814610179575b5f5ffd5b61012760048036038101906101229190611ac3565b61037a565b6040516101349190611b08565b60405180910390f35b6101456103f3565b6040516101529190611b9b565b60405180910390f35b610163610417565b6040516101709190611bd4565b60405180910390f35b61018161043b565b60405161018e9190611c05565b60405180910390f35b6101b160048036038101906101ac9190611c48565b61045f565b6040516101be9190611c05565b60405180910390f35b6101e160048036038101906101dc9190611cd0565b61047b565b005b6101fd60048036038101906101f89190611d94565b610556565b005b61021960048036038101906102149190611d94565b610578565b005b6102236105f3565b6040516102309190611df2565b60405180910390f35b610253600480360381019061024e9190611c48565b610617565b6040516102639493929190611e1a565b60405180910390f35b61028660048036038101906102819190611d94565b610652565b6040516102939190611b08565b60405180910390f35b6102a46106b5565b6040516102b19190611c05565b60405180910390f35b6102c26106bb565b6040516102cf9190611e7d565b60405180910390f35b6102e06106df565b6040516102ed9190611eb6565b60405180910390f35b610310600480360381019061030b9190611d94565b610703565b005b61032c60048036038101906103279190611c48565b610725565b60405161034199989796959493929190611ecf565b60405180910390f35b610364600480360381019061035f9190611f5a565b61076f565b6040516103719190611b08565b60405180910390f35b5f7f7965db0b000000000000000000000000000000000000000000000000000000007bffffffffffffffffffffffffffffffffffffffffffffffffffffffff1916827bffffffffffffffffffffffffffffffffffffffffffffffffffffffff191614806103ec57506103eb82611768565b5b9050919050565b7f000000000000000000000000000000000000000000000000000000000000000081565b7f000000000000000000000000000000000000000000000000000000000000000081565b7fcab5a0bfe0b79d2c4b1c2e02599fa044d115b7511f9659307cb427695096770981565b5f5f5f8381526020019081526020015f20600101549050919050565b5f5f1b610487816117d1565b5f60015f8981526020019081526020015f20905086815f01819055508581600101819055508481600201819055508381600301819055505f8160070154036104dc574281600701819055504281600801819055505b8215610510575f81600501819055505f81600601819055504281600701819055504281600801819055505f81600401819055505b877fe491fa2e54224920e532abf2a655b7702ad9ad12c9283b0b2403583169af497d88888860405161054493929190611faa565b60405180910390a25050505050505050565b61055f8261045f565b610568816117d1565b61057283836117e5565b50505050565b6105806118ce565b73ffffffffffffffffffffffffffffffffffffffff168173ffffffffffffffffffffffffffffffffffffffff16146105e4576040517f6697b23200000000000000000000000000000000000000000000000000000000815260040160405180910390fd5b6105ee82826118d5565b505050565b7f000000000000000000000000000000000000000000000000000000000000000081565b5f5f5f5f5f60015f8781526020019081526020015f20905080600501548160060154825f015483600101549450945094509450509193509193565b5f5f5f8481526020019081526020015f205f015f8373ffffffffffffffffffffffffffffffffffffffff1673ffffffffffffffffffffffffffffffffffffffff1681526020019081526020015f205f9054906101000a900460ff16905092915050565b5f5f1b81565b7f000000000000000000000000000000000000000000000000000000000000000081565b7f000000000000000000000000000000000000000000000000000000000000000081565b61070c8261045f565b610715816117d1565b61071f83836118d5565b50505050565b6001602052805f5260405f205f91509050805f0154908060010154908060020154908060030154908060040154908060050154908060060154908060070154908060080154905089565b5f7fcab5a0bfe0b79d2c4b1c2e02599fa044d115b7511f9659307cb427695096770961079a816117d1565b5f60015f8781526020019081526020015f2090505f815f01541480156107c357505f8160010154145b80156107d257505f8160020154145b1561097f575f6040518060400160405280601781526020017f4e6f20706f6c6963792073657420666f72206167656e7400000000000000000081525090507f000000000000000000000000000000000000000000000000000000000000000073ffffffffffffffffffffffffffffffffffffffff166319cb0280888888856040518563ffffffff1660e01b815260040161086f949392919061205e565b5f604051808303815f87803b158015610886575f5ffd5b505af1158015610898573d5f5f3e3d5ffd5b505050507f000000000000000000000000000000000000000000000000000000000000000073ffffffffffffffffffffffffffffffffffffffff1663cfda49668860016040518363ffffffff1660e01b81526004016108f89291906120e1565b5f604051808303815f87803b15801561090f575f5ffd5b505af1158015610921573d5f5f3e3d5ffd5b505050508573ffffffffffffffffffffffffffffffffffffffff16877e3d7dd863ccf03d3d0a80976c923aa596ec96571230d5211f2e926c5fd1e597878460405161096d929190612108565b60405180910390a35f93505050611760565b7f000000000000000000000000000000000000000000000000000000000000000073ffffffffffffffffffffffffffffffffffffffff16637ab7236d6040518163ffffffff1660e01b8152600401602060405180830381865afa1580156109e8573d5f5f3e3d5ffd5b505050506040513d601f19601f82011682018060405250810190610a0c919061214a565b15610b30575f6040518060400160405280601881526020017f50726f746f636f6c20676c6f62616c6c7920706175736564000000000000000081525090507f000000000000000000000000000000000000000000000000000000000000000073ffffffffffffffffffffffffffffffffffffffff166319cb0280888888856040518563ffffffff1660e01b8152600401610aa9949392919061205e565b5f604051808303815f87803b158015610ac0575f5ffd5b505af1158015610ad2573d5f5f3e3d5ffd5b505050508573ffffffffffffffffffffffffffffffffffffffff16877e3d7dd863ccf03d3d0a80976c923aa596ec96571230d5211f2e926c5fd1e5978784604051610b1e929190612108565b60405180910390a35f93505050611760565b7f000000000000000000000000000000000000000000000000000000000000000073ffffffffffffffffffffffffffffffffffffffff16638a92792b876040518263ffffffff1660e01b8152600401610b899190611c05565b602060405180830381865afa158015610ba4573d5f5f3e3d5ffd5b505050506040513d601f19601f82011682018060405250810190610bc8919061214a565b610ceb575f6040518060400160405280601081526020017f4167656e74206e6f74206163746976650000000000000000000000000000000081525090507f000000000000000000000000000000000000000000000000000000000000000073ffffffffffffffffffffffffffffffffffffffff166319cb0280888888856040518563ffffffff1660e01b8152600401610c64949392919061205e565b5f604051808303815f87803b158015610c7b575f5ffd5b505af1158015610c8d573d5f5f3e3d5ffd5b505050508573ffffffffffffffffffffffffffffffffffffffff16877e3d7dd863ccf03d3d0a80976c923aa596ec96571230d5211f2e926c5fd1e5978784604051610cd9929190612108565b60405180910390a35f93505050611760565b7f000000000000000000000000000000000000000000000000000000000000000073ffffffffffffffffffffffffffffffffffffffff16633c34bcdb866040518263ffffffff1660e01b8152600401610d449190612175565b602060405180830381865afa158015610d5f573d5f5f3e3d5ffd5b505050506040513d601f19601f82011682018060405250810190610d83919061214a565b610f2f575f6040518060400160405280601781526020017f56656e646f72206e6f74206f6e20616c6c6f776c69737400000000000000000081525090507f000000000000000000000000000000000000000000000000000000000000000073ffffffffffffffffffffffffffffffffffffffff166319cb0280888888856040518563ffffffff1660e01b8152600401610e1f949392919061205e565b5f604051808303815f87803b158015610e36575f5ffd5b505af1158015610e48573d5f5f3e3d5ffd5b505050507f000000000000000000000000000000000000000000000000000000000000000073ffffffffffffffffffffffffffffffffffffffff1663cfda49668860056040518363ffffffff1660e01b8152600401610ea89291906121c7565b5f604051808303815f87803b158015610ebf575f5ffd5b505af1158015610ed1573d5f5f3e3d5ffd5b505050508573ffffffffffffffffffffffffffffffffffffffff16877e3d7dd863ccf03d3d0a80976c923aa596ec96571230d5211f2e926c5fd1e5978784604051610f1d929190612108565b60405180910390a35f93505050611760565b80600201548411156110e3575f6040518060400160405280601481526020017f45786365656473207065722d7478206c696d697400000000000000000000000081525090507f000000000000000000000000000000000000000000000000000000000000000073ffffffffffffffffffffffffffffffffffffffff166319cb0280888888856040518563ffffffff1660e01b8152600401610fd3949392919061205e565b5f604051808303815f87803b158015610fea575f5ffd5b505af1158015610ffc573d5f5f3e3d5ffd5b505050507f000000000000000000000000000000000000000000000000000000000000000073ffffffffffffffffffffffffffffffffffffffff1663cfda49668860036040518363ffffffff1660e01b815260040161105c929190612227565b5f604051808303815f87803b158015611073575f5ffd5b505af1158015611085573d5f5f3e3d5ffd5b505050508573ffffffffffffffffffffffffffffffffffffffff16877e3d7dd863ccf03d3d0a80976c923aa596ec96571230d5211f2e926c5fd1e59787846040516110d1929190612108565b60405180910390a35f93505050611760565b5f8160040154118015611108575080600301548160040154611105919061227b565b42105b1561122c575f6040518060400160405280601b81526020017f436f6f6c646f776e20706572696f64206e6f7420656c6170736564000000000081525090507f000000000000000000000000000000000000000000000000000000000000000073ffffffffffffffffffffffffffffffffffffffff166319cb0280888888856040518563ffffffff1660e01b81526004016111a5949392919061205e565b5f604051808303815f87803b1580156111bc575f5ffd5b505af11580156111ce573d5f5f3e3d5ffd5b505050508573ffffffffffffffffffffffffffffffffffffffff16877e3d7dd863ccf03d3d0a80976c923aa596ec96571230d5211f2e926c5fd1e597878460405161121a929190612108565b60405180910390a35f93505050611760565b611235816119be565b805f0154848260050154611249919061227b565b11156113f7575f6040518060400160405280601381526020017f45786365656473206461696c79206c696d69740000000000000000000000000081525090507f000000000000000000000000000000000000000000000000000000000000000073ffffffffffffffffffffffffffffffffffffffff166319cb0280888888856040518563ffffffff1660e01b81526004016112e7949392919061205e565b5f604051808303815f87803b1580156112fe575f5ffd5b505af1158015611310573d5f5f3e3d5ffd5b505050507f000000000000000000000000000000000000000000000000000000000000000073ffffffffffffffffffffffffffffffffffffffff1663cfda49668860026040518363ffffffff1660e01b81526004016113709291906122e7565b5f604051808303815f87803b158015611387575f5ffd5b505af1158015611399573d5f5f3e3d5ffd5b505050508573ffffffffffffffffffffffffffffffffffffffff16877e3d7dd863ccf03d3d0a80976c923aa596ec96571230d5211f2e926c5fd1e59787846040516113e5929190612108565b60405180910390a35f93505050611760565b806001015484826006015461140c919061227b565b11156115ba575f6040518060400160405280601581526020017f45786365656473206d6f6e74686c79206c696d6974000000000000000000000081525090507f000000000000000000000000000000000000000000000000000000000000000073ffffffffffffffffffffffffffffffffffffffff166319cb0280888888856040518563ffffffff1660e01b81526004016114aa949392919061205e565b5f604051808303815f87803b1580156114c1575f5ffd5b505af11580156114d3573d5f5f3e3d5ffd5b505050507f000000000000000000000000000000000000000000000000000000000000000073ffffffffffffffffffffffffffffffffffffffff1663cfda49668860026040518363ffffffff1660e01b81526004016115339291906122e7565b5f604051808303815f87803b15801561154a575f5ffd5b505af115801561155c573d5f5f3e3d5ffd5b505050508573ffffffffffffffffffffffffffffffffffffffff16877e3d7dd863ccf03d3d0a80976c923aa596ec96571230d5211f2e926c5fd1e59787846040516115a8929190612108565b60405180910390a35f93505050611760565b83816005015f8282546115cd919061227b565b9250508190555083816006015f8282546115e7919061227b565b925050819055504281600401819055507f000000000000000000000000000000000000000000000000000000000000000073ffffffffffffffffffffffffffffffffffffffff16636664ac918787876040518463ffffffff1660e01b81526004016116549392919061230e565b5f604051808303815f87803b15801561166b575f5ffd5b505af115801561167d573d5f5f3e3d5ffd5b505050507f000000000000000000000000000000000000000000000000000000000000000073ffffffffffffffffffffffffffffffffffffffff1663566805088787876040518463ffffffff1660e01b81526004016116de9392919061230e565b5f604051808303815f87803b1580156116f5575f5ffd5b505af1158015611707573d5f5f3e3d5ffd5b505050508473ffffffffffffffffffffffffffffffffffffffff16867fd9a7404b1e6d23988ac427617e9f6417aaa4c9e2251b43232a918ada0ba1a6c4866040516117529190612343565b60405180910390a360019250505b509392505050565b5f7f01ffc9a7000000000000000000000000000000000000000000000000000000007bffffffffffffffffffffffffffffffffffffffffffffffffffffffff1916827bffffffffffffffffffffffffffffffffffffffffffffffffffffffff1916149050919050565b6117e2816117dd6118ce565b611a19565b50565b5f6117f08383610652565b6118c45760015f5f8581526020019081526020015f205f015f8473ffffffffffffffffffffffffffffffffffffffff1673ffffffffffffffffffffffffffffffffffffffff1681526020019081526020015f205f6101000a81548160ff0219169083151502179055506118616118ce565b73ffffffffffffffffffffffffffffffffffffffff168273ffffffffffffffffffffffffffffffffffffffff16847f2f8788117e7eff1d82e926ec794901d17c78024a50270940304540a733656f0d60405160405180910390a4600190506118c8565b5f90505b92915050565b5f33905090565b5f6118e08383610652565b156119b4575f5f5f8581526020019081526020015f205f015f8473ffffffffffffffffffffffffffffffffffffffff1673ffffffffffffffffffffffffffffffffffffffff1681526020019081526020015f205f6101000a81548160ff0219169083151502179055506119516118ce565b73ffffffffffffffffffffffffffffffffffffffff168273ffffffffffffffffffffffffffffffffffffffff16847ff6391f5c32d9c69d2a47ea670b442974b53935d1edc7fd64eb21e047a839171b60405160405180910390a4600190506119b8565b5f90505b92915050565b6201518081600701546119d1919061227b565b42106119ea575f81600501819055504281600701819055505b62278d0081600801546119fd919061227b565b4210611a16575f81600601819055504281600801819055505b50565b611a238282610652565b611a665780826040517fe2517d3f000000000000000000000000000000000000000000000000000000008152600401611a5d92919061235c565b60405180910390fd5b5050565b5f5ffd5b5f7fffffffff0000000000000000000000000000000000000000000000000000000082169050919050565b611aa281611a6e565b8114611aac575f5ffd5b50565b5f81359050611abd81611a99565b92915050565b5f60208284031215611ad857611ad7611a6a565b5b5f611ae584828501611aaf565b91505092915050565b5f8115159050919050565b611b0281611aee565b82525050565b5f602082019050611b1b5f830184611af9565b92915050565b5f73ffffffffffffffffffffffffffffffffffffffff82169050919050565b5f819050919050565b5f611b63611b5e611b5984611b21565b611b40565b611b21565b9050919050565b5f611b7482611b49565b9050919050565b5f611b8582611b6a565b9050919050565b611b9581611b7b565b82525050565b5f602082019050611bae5f830184611b8c565b92915050565b5f611bbe82611b6a565b9050919050565b611bce81611bb4565b82525050565b5f602082019050611be75f830184611bc5565b92915050565b5f819050919050565b611bff81611bed565b82525050565b5f602082019050611c185f830184611bf6565b92915050565b611c2781611bed565b8114611c31575f5ffd5b50565b5f81359050611c4281611c1e565b92915050565b5f60208284031215611c5d57611c5c611a6a565b5b5f611c6a84828501611c34565b91505092915050565b5f819050919050565b611c8581611c73565b8114611c8f575f5ffd5b50565b5f81359050611ca081611c7c565b92915050565b611caf81611aee565b8114611cb9575f5ffd5b50565b5f81359050611cca81611ca6565b92915050565b5f5f5f5f5f5f60c08789031215611cea57611ce9611a6a565b5b5f611cf789828a01611c34565b9650506020611d0889828a01611c92565b9550506040611d1989828a01611c92565b9450506060611d2a89828a01611c92565b9350506080611d3b89828a01611c92565b92505060a0611d4c89828a01611cbc565b9150509295509295509295565b5f611d6382611b21565b9050919050565b611d7381611d59565b8114611d7d575f5ffd5b50565b5f81359050611d8e81611d6a565b92915050565b5f5f60408385031215611daa57611da9611a6a565b5b5f611db785828601611c34565b9250506020611dc885828601611d80565b9150509250929050565b5f611ddc82611b6a565b9050919050565b611dec81611dd2565b82525050565b5f602082019050611e055f830184611de3565b92915050565b611e1481611c73565b82525050565b5f608082019050611e2d5f830187611e0b565b611e3a6020830186611e0b565b611e476040830185611e0b565b611e546060830184611e0b565b95945050505050565b5f611e6782611b6a565b9050919050565b611e7781611e5d565b82525050565b5f602082019050611e905f830184611e6e565b92915050565b5f611ea082611b6a565b9050919050565b611eb081611e96565b82525050565b5f602082019050611ec95f830184611ea7565b92915050565b5f61012082019050611ee35f83018c611e0b565b611ef0602083018b611e0b565b611efd604083018a611e0b565b611f0a6060830189611e0b565b611f176080830188611e0b565b611f2460a0830187611e0b565b611f3160c0830186611e0b565b611f3e60e0830185611e0b565b611f4c610100830184611e0b565b9a9950505050505050505050565b5f5f5f60608486031215611f7157611f70611a6a565b5b5f611f7e86828701611c34565b9350506020611f8f86828701611d80565b9250506040611fa086828701611c92565b9150509250925092565b5f606082019050611fbd5f830186611e0b565b611fca6020830185611e0b565b611fd76040830184611e0b565b949350505050565b611fe881611d59565b82525050565b5f81519050919050565b5f82825260208201905092915050565b8281835e5f83830152505050565b5f601f19601f8301169050919050565b5f61203082611fee565b61203a8185611ff8565b935061204a818560208601612008565b61205381612016565b840191505092915050565b5f6080820190506120715f830187611bf6565b61207e6020830186611fdf565b61208b6040830185611e0b565b818103606083015261209d8184612026565b905095945050505050565b5f819050919050565b5f6120cb6120c66120c1846120a8565b611b40565b611c73565b9050919050565b6120db816120b1565b82525050565b5f6040820190506120f45f830185611bf6565b61210160208301846120d2565b9392505050565b5f60408201905061211b5f830185611e0b565b818103602083015261212d8184612026565b90509392505050565b5f8151905061214481611ca6565b92915050565b5f6020828403121561215f5761215e611a6a565b5b5f61216c84828501612136565b91505092915050565b5f6020820190506121885f830184611fdf565b92915050565b5f819050919050565b5f6121b16121ac6121a78461218e565b611b40565b611c73565b9050919050565b6121c181612197565b82525050565b5f6040820190506121da5f830185611bf6565b6121e760208301846121b8565b9392505050565b5f819050919050565b5f61221161220c612207846121ee565b611b40565b611c73565b9050919050565b612221816121f7565b82525050565b5f60408201905061223a5f830185611bf6565b6122476020830184612218565b9392505050565b7f4e487b71000000000000000000000000000000000000000000000000000000005f52601160045260245ffd5b5f61228582611c73565b915061229083611c73565b92508282019050808211156122a8576122a761224e565b5b92915050565b5f819050919050565b5f6122d16122cc6122c7846122ae565b611b40565b611c73565b9050919050565b6122e1816122b7565b82525050565b5f6040820190506122fa5f830185611bf6565b61230760208301846122d8565b9392505050565b5f6060820190506123215f830186611bf6565b61232e6020830185611fdf565b61233b6040830184611e0b565b949350505050565b5f6020820190506123565f830184611e0b565b92915050565b5f60408201905061236f5f830185611fdf565b61237c6020830184611bf6565b939250505056fea264697066735822122005011be7e5f800bb086d0d12a87e499654a7ee0a884efb071527648b3a341a2364736f6c63430008230033","linkReferences":{}},"methodIdentifiers":{"AGENT_ROLE()":"22459e18","DEFAULT_ADMIN_ROLE()":"a217fddf","agentRegistry()":"0d1cfcae","auditLogger()":"0921224b","checkSpend(bytes32,address,uint256)":"f7166160","getRoleAdmin(bytes32)":"248a9ca3","getSpend(bytes32)":"81862cbd","grantRole(bytes32,address)":"2f2ff15d","hasRole(bytes32,address)":"91d14854","killSwitch()":"ada14698","policies(bytes32)":"ddbfd8ef","renounceRole(bytes32,address)":"36568abe","revokeRole(bytes32,address)":"d547741f","setPolicy(bytes32,uint256,uint256,uint256,uint256,bool)":"29fbbea8","supportsInterface(bytes4)":"01ffc9a7","treasuryVault()":"af8b1c6f","vendorAllowlist()":"810a30a0"},"id":36}